{
  "contractName": "RoadMap",
  "abi": [
    {
      "inputs": [],
      "stateMutability": "payable",
      "type": "constructor"
    },
    {
      "inputs": [],
      "name": "balance",
      "outputs": [
        {
          "internalType": "uint256",
          "name": "",
          "type": "uint256"
        }
      ],
      "stateMutability": "view",
      "type": "function"
    },
    {
      "inputs": [],
      "name": "hits",
      "outputs": [
        {
          "internalType": "uint256",
          "name": "",
          "type": "uint256"
        }
      ],
      "stateMutability": "view",
      "type": "function"
    },
    {
      "inputs": [],
      "name": "owner",
      "outputs": [
        {
          "internalType": "address",
          "name": "",
          "type": "address"
        }
      ],
      "stateMutability": "view",
      "type": "function"
    },
    {
      "inputs": [
        {
          "internalType": "uint256",
          "name": "",
          "type": "uint256"
        }
      ],
      "name": "polygonLat",
      "outputs": [
        {
          "internalType": "int32",
          "name": "",
          "type": "int32"
        }
      ],
      "stateMutability": "view",
      "type": "function"
    },
    {
      "inputs": [
        {
          "internalType": "uint256",
          "name": "",
          "type": "uint256"
        }
      ],
      "name": "polygonLong",
      "outputs": [
        {
          "internalType": "int32",
          "name": "",
          "type": "int32"
        }
      ],
      "stateMutability": "view",
      "type": "function"
    },
    {
      "inputs": [
        {
          "internalType": "uint256",
          "name": "",
          "type": "uint256"
        }
      ],
      "name": "report",
      "outputs": [
        {
          "internalType": "int8",
          "name": "",
          "type": "int8"
        }
      ],
      "stateMutability": "view",
      "type": "function"
    },
    {
      "stateMutability": "payable",
      "type": "receive"
    },
    {
      "inputs": [
        {
          "internalType": "uint256",
          "name": "index",
          "type": "uint256"
        }
      ],
      "name": "polygon",
      "outputs": [
        {
          "internalType": "int32",
          "name": "longitude",
          "type": "int32"
        },
        {
          "internalType": "int32",
          "name": "latitude",
          "type": "int32"
        }
      ],
      "stateMutability": "view",
      "type": "function"
    },
    {
      "inputs": [
        {
          "internalType": "int32",
          "name": "long",
          "type": "int32"
        },
        {
          "internalType": "int32",
          "name": "lat",
          "type": "int32"
        }
      ],
      "name": "addToPolygon",
      "outputs": [],
      "stateMutability": "nonpayable",
      "type": "function"
    },
    {
      "inputs": [
        {
          "internalType": "int8",
          "name": "value",
          "type": "int8"
        },
        {
          "internalType": "uint16",
          "name": "index",
          "type": "uint16"
        }
      ],
      "name": "remove",
      "outputs": [],
      "stateMutability": "nonpayable",
      "type": "function"
    },
    {
      "inputs": [
        {
          "internalType": "address",
          "name": "_alert",
          "type": "address"
        }
      ],
      "name": "addAlert",
      "outputs": [],
      "stateMutability": "nonpayable",
      "type": "function"
    },
    {
      "inputs": [],
      "name": "addFund",
      "outputs": [],
      "stateMutability": "payable",
      "type": "function"
    },
    {
      "inputs": [],
      "name": "withdraw",
      "outputs": [],
      "stateMutability": "payable",
      "type": "function"
    },
    {
      "inputs": [
        {
          "internalType": "address",
          "name": "newowner",
          "type": "address"
        }
      ],
      "name": "changeOwner",
      "outputs": [],
      "stateMutability": "nonpayable",
      "type": "function"
    }
  ],
  "bytecode": "0x608060405273ed4ba4d1b51a33adb6ad579a9a6aceffa889bff25f806101000a81548173ffffffffffffffffffffffffffffffffffffffff021916908373ffffffffffffffffffffffffffffffffffffffff1602179055505f6009555f600b555f805f8054906101000a900473ffffffffffffffffffffffffffffffffffffffff1673ffffffffffffffffffffffffffffffffffffffff166040516024016040516020818303038152906040527f2c4e722e000000000000000000000000000000000000000000000000000000007bffffffffffffffffffffffffffffffffffffffffffffffffffffffff19166020820180517bffffffffffffffffffffffffffffffffffffffffffffffffffffffff838183161783525050505060405162000129919062000330565b5f604051808303815f865af19150503d805f811462000164576040519150601f19603f3d011682016040523d82523d5f602084013e62000169565b606091505b509150915081620001b1576040517f08c379a0000000000000000000000000000000000000000000000000000000008152600401620001a890620003a6565b60405180910390fd5b5f81806020019051810190620001c8919062000402565b90503481146200020f576040517f08c379a0000000000000000000000000000000000000000000000000000000008152600401620002069062000480565b60405180910390fd5b5f8054906101000a900473ffffffffffffffffffffffffffffffffffffffff1673ffffffffffffffffffffffffffffffffffffffff166108fc8290811502906040515f60405180830381858888f1935050505015801562000272573d5f803e3d5ffd5b503360015f6101000a81548173ffffffffffffffffffffffffffffffffffffffff021916908373ffffffffffffffffffffffffffffffffffffffff160217905550505050620004a0565b5f81519050919050565b5f81905092915050565b5f5b83811015620002ef578082015181840152602081019050620002d2565b5f8484015250505050565b5f6200030682620002bc565b620003128185620002c6565b935062000324818560208601620002d0565b80840191505092915050565b5f6200033d8284620002fa565b915081905092915050565b5f82825260208201905092915050565b7f6e6f2072617465000000000000000000000000000000000000000000000000005f82015250565b5f6200038e60078362000348565b91506200039b8262000358565b602082019050919050565b5f6020820190508181035f830152620003bf8162000380565b9050919050565b5f80fd5b5f819050919050565b620003de81620003ca565b8114620003e9575f80fd5b50565b5f81519050620003fc81620003d3565b92915050565b5f602082840312156200041a5762000419620003c6565b5b5f6200042984828501620003ec565b91505092915050565b7f76616c75652077726f6e670000000000000000000000000000000000000000005f82015250565b5f62000468600b8362000348565b9150620004758262000432565b602082019050919050565b5f6020820190508181035f83015262000499816200045a565b9050919050565b61104b80620004ae5f395ff3fe6080604052600436106100c5575f3560e01c8063b69ef8a81161007e578063cf2470f611610058578063cf2470f614610229578063d630705f14610253578063d6ccf58a1461027b578063e74ae694146102b7576100cc565b8063b69ef8a81461019a578063ba5ca3fc146101c4578063bb295a59146101ec576100cc565b80631834f9bb146100d05780633ccfd60b146100f85780638da5cb5b14610102578063969b1cdb1461012c578063a2f09dfa14610168578063a6f9dae114610172576100cc565b366100cc57005b5f80fd5b3480156100db575f80fd5b506100f660048036038101906100f19190610a95565b6102f3565b005b6101006104ef565b005b34801561010d575f80fd5b506101166105b0565b6040516101239190610b12565b60405180910390f35b348015610137575f80fd5b50610152600480360381019061014d9190610b5e565b6105d5565b60405161015f9190610b98565b60405180910390f35b6101706105fd565b005b34801561017d575f80fd5b5061019860048036038101906101939190610bdb565b610617565b005b3480156101a5575f80fd5b506101ae6106b2565b6040516101bb9190610c15565b60405180910390f35b3480156101cf575f80fd5b506101ea60048036038101906101e59190610bdb565b6106b8565b005b3480156101f7575f80fd5b50610212600480360381019061020d9190610b5e565b610753565b604051610220929190610c49565b60405180910390f35b348015610234575f80fd5b5061023d6107d2565b60405161024a9190610c15565b60405180910390f35b34801561025e575f80fd5b5061027960048036038101906102749190610c9a565b6107d8565b005b348015610286575f80fd5b506102a1600480360381019061029c9190610b5e565b6109cd565b6040516102ae9190610cd8565b60405180910390f35b3480156102c2575f80fd5b506102dd60048036038101906102d89190610b5e565b6109f9565b6040516102ea9190610cd8565b60405180910390f35b60015f9054906101000a900473ffffffffffffffffffffffffffffffffffffffff1673ffffffffffffffffffffffffffffffffffffffff163373ffffffffffffffffffffffffffffffffffffffff160361046c575f60025f9054906101000a900473ffffffffffffffffffffffffffffffffffffffff1673ffffffffffffffffffffffffffffffffffffffff16826040516024016103919190610d00565b6040516020818303038152906040527f77a22253000000000000000000000000000000000000000000000000000000007bffffffffffffffffffffffffffffffffffffffffffffffffffffffff19166020820180517bffffffffffffffffffffffffffffffffffffffffffffffffffffffff838183161783525050505060405161041b9190610d85565b5f604051808303815f865af19150503d805f8114610454576040519150601f19603f3d011682016040523d82523d5f602084013e610459565b606091505b5050905080610466575f80fd5b506104eb565b60028260078361ffff166032811061048757610486610d9b565b5b602091828204019190069054906101000a90045f0b6104a69190610df5565b6104b09190610e7a565b60078261ffff16603281106104c8576104c7610d9b565b5b602091828204019190066101000a81548160ff02191690835f0b60ff1602179055505b5050565b3373ffffffffffffffffffffffffffffffffffffffff1660015f9054906101000a900473ffffffffffffffffffffffffffffffffffffffff1673ffffffffffffffffffffffffffffffffffffffff1614610547575f80fd5b60015f9054906101000a900473ffffffffffffffffffffffffffffffffffffffff1673ffffffffffffffffffffffffffffffffffffffff166108fc600b5490811502906040515f60405180830381858888f193505050501580156105ad573d5f803e3d5ffd5b50565b60015f9054906101000a900473ffffffffffffffffffffffffffffffffffffffff1681565b600781603281106105e4575f80fd5b60209182820401919006915054906101000a90045f0b81565b34600b5f82825461060e9190610ee2565b92505081905550565b3373ffffffffffffffffffffffffffffffffffffffff1660015f9054906101000a900473ffffffffffffffffffffffffffffffffffffffff1673ffffffffffffffffffffffffffffffffffffffff161461066f575f80fd5b8060015f6101000a81548173ffffffffffffffffffffffffffffffffffffffff021916908373ffffffffffffffffffffffffffffffffffffffff16021790555050565b600b5481565b3373ffffffffffffffffffffffffffffffffffffffff1660015f9054906101000a900473ffffffffffffffffffffffffffffffffffffffff1673ffffffffffffffffffffffffffffffffffffffff1614610710575f80fd5b8060025f6101000a81548173ffffffffffffffffffffffffffffffffffffffff021916908373ffffffffffffffffffffffffffffffffffffffff16021790555050565b5f806009548310801561076757505f600954115b61076f575f80fd5b600383600a811061078357610782610d9b565b5b600891828204019190066004029054906101000a900460030b600584600a81106107b0576107af610d9b565b5b600891828204019190066004029054906101000a900460030b91509150915091565b60095481565b60015f9054906101000a900473ffffffffffffffffffffffffffffffffffffffff1673ffffffffffffffffffffffffffffffffffffffff163373ffffffffffffffffffffffffffffffffffffffff1614610867576040517f08c379a000000000000000000000000000000000000000000000000000000000815260040161085e90610f6f565b60405180910390fd5b60646009541080156108ed5750630aba95008260030b1380156108ac57507ffffffffffffffffffffffffffffffffffffffffffffffffffffffffffaa2b5808260030b125b80156108be5750630aba95008160030b135b80156108ec57507ffffffffffffffffffffffffffffffffffffffffffffffffffffffffffaa2b5808160030b125b5b61092c576040517f08c379a000000000000000000000000000000000000000000000000000000000815260040161092390610fb0565b60405180910390fd5b816003600954600a811061094357610942610d9b565b5b600891828204019190066004026101000a81548163ffffffff021916908360030b63ffffffff160217905550806003600954600a811061098657610985610d9b565b5b600891828204019190066004026101000a81548163ffffffff021916908360030b63ffffffff16021790555060095f8154809291906109c490610fce565b91905055505050565b600581600a81106109dc575f80fd5b60089182820401919006600402915054906101000a900460030b81565b600381600a8110610a08575f80fd5b60089182820401919006600402915054906101000a900460030b81565b5f80fd5b5f815f0b9050919050565b610a3d81610a29565b8114610a47575f80fd5b50565b5f81359050610a5881610a34565b92915050565b5f61ffff82169050919050565b610a7481610a5e565b8114610a7e575f80fd5b50565b5f81359050610a8f81610a6b565b92915050565b5f8060408385031215610aab57610aaa610a25565b5b5f610ab885828601610a4a565b9250506020610ac985828601610a81565b9150509250929050565b5f73ffffffffffffffffffffffffffffffffffffffff82169050919050565b5f610afc82610ad3565b9050919050565b610b0c81610af2565b82525050565b5f602082019050610b255f830184610b03565b92915050565b5f819050919050565b610b3d81610b2b565b8114610b47575f80fd5b50565b5f81359050610b5881610b34565b92915050565b5f60208284031215610b7357610b72610a25565b5b5f610b8084828501610b4a565b91505092915050565b610b9281610a29565b82525050565b5f602082019050610bab5f830184610b89565b92915050565b610bba81610af2565b8114610bc4575f80fd5b50565b5f81359050610bd581610bb1565b92915050565b5f60208284031215610bf057610bef610a25565b5b5f610bfd84828501610bc7565b91505092915050565b610c0f81610b2b565b82525050565b5f602082019050610c285f830184610c06565b92915050565b5f8160030b9050919050565b610c4381610c2e565b82525050565b5f604082019050610c5c5f830185610c3a565b610c696020830184610c3a565b9392505050565b610c7981610c2e565b8114610c83575f80fd5b50565b5f81359050610c9481610c70565b92915050565b5f8060408385031215610cb057610caf610a25565b5b5f610cbd85828601610c86565b9250506020610cce85828601610c86565b9150509250929050565b5f602082019050610ceb5f830184610c3a565b92915050565b610cfa81610a5e565b82525050565b5f602082019050610d135f830184610cf1565b92915050565b5f81519050919050565b5f81905092915050565b5f5b83811015610d4a578082015181840152602081019050610d2f565b5f8484015250505050565b5f610d5f82610d19565b610d698185610d23565b9350610d79818560208601610d2d565b80840191505092915050565b5f610d908284610d55565b915081905092915050565b7f4e487b71000000000000000000000000000000000000000000000000000000005f52603260045260245ffd5b7f4e487b71000000000000000000000000000000000000000000000000000000005f52601160045260245ffd5b5f610dff82610a29565b9150610e0a83610a29565b925082820190507fffffffffffffffffffffffffffffffffffffffffffffffffffffffffffffff808112607f82131715610e4757610e46610dc8565b5b92915050565b7f4e487b71000000000000000000000000000000000000000000000000000000005f52601260045260245ffd5b5f610e8482610a29565b9150610e8f83610a29565b925082610e9f57610e9e610e4d565b5b60015f0383147fffffffffffffffffffffffffffffffffffffffffffffffffffffffffffffff8083141615610ed757610ed6610dc8565b5b828205905092915050565b5f610eec82610b2b565b9150610ef783610b2b565b9250828201905080821115610f0f57610f0e610dc8565b5b92915050565b5f82825260208201905092915050565b7f4e6f74204f776e657200000000000000000000000000000000000000000000005f82015250565b5f610f59600983610f15565b9150610f6482610f25565b602082019050919050565b5f6020820190508181035f830152610f8681610f4d565b9050919050565b50565b5f610f9b5f83610f15565b9150610fa682610f8d565b5f82019050919050565b5f6020820190508181035f830152610fc781610f90565b9050919050565b5f610fd882610b2b565b91507fffffffffffffffffffffffffffffffffffffffffffffffffffffffffffffffff820361100a57611009610dc8565b5b60018201905091905056fea2646970667358221220b36de2a8c87ac5ce4ca5dd5aee2a8954904336a8d0e23845d8e17a473f14fd8b64736f6c63430008140033",
  "immutableReferences": {},
  "source": "// SPDX-License-Identifier: MIT\r\npragma solidity ^0.8.0;\r\n\r\n\r\ncontract RoadMap{\r\n    \r\n    address dev = 0xEd4Ba4D1b51A33aDb6ad579a9A6AceFfa889bff2;\r\n    address public owner;\r\n    address alert;\r\n    int32[10] public polygonLong;\r\n    int32[10] public polygonLat;\r\n    int8[50] public report;\r\n    uint public hits = 0;\r\n    mapping(address => uint) viewer;\r\n    uint256 public balance=0;\r\n\r\n    receive() external payable {\r\n\r\n    }\r\n\r\n    constructor() payable {\r\n        (bool success,bytes memory result) = dev.call(abi.encodeWithSignature(\"rate()\"));\r\n        require(success,\"no rate\");\r\n        \r\n        (uint256 rate) = abi.decode(result,(uint256));\r\n        require(rate == msg.value,\"value wrong\");\r\n        payable(dev).transfer(rate);\r\n        owner = msg.sender;\r\n    }\r\n\r\n    //get polygon coordinates\r\n    function polygon(uint index) view public returns(int32 longitude,int32 latitude){\r\n        require(index<hits && hits>0);\r\n        return(polygonLong[index],polygonLat[index]);\r\n    }\r\n\r\n    //owner, region of map cover\r\n    function addToPolygon(int32 long,int32 lat) external  {\r\n        require(msg.sender == owner,\"Not Owner\");\r\n        require((hits<100)&&(long>180000000 && long<-90000000 && lat>180000000 && lat<-90000000),\"\");\r\n\r\n        polygonLong[hits] = long;\r\n        polygonLong[hits] = lat;\r\n        hits++;\r\n    }\r\n\r\n    //remove\r\n    function remove(int8 value,uint16 index) public{\r\n        \r\n        if(msg.sender == owner){\r\n            (bool success,) = alert.call(abi.encodeWithSignature(\"remove(uint16 index)\",index));\r\n            require(success);   \r\n        }else{\r\n            report[index] = (report[index]+value)/2;\r\n        }\r\n\r\n    }\r\n\r\n    function addAlert(address _alert) public{\r\n        require(owner == msg.sender);\r\n        alert = _alert;\r\n    }\r\n    function addFund() external payable{\r\n        balance += msg.value;\r\n    }\r\n\r\n    function withdraw() external payable {\r\n        require(owner == msg.sender);\r\n        payable(owner).transfer(balance);\r\n    }\r\n\r\n    function changeOwner(address newowner) external{\r\n        require(owner == msg.sender);\r\n        owner = newowner;\r\n    }\r\n}",
  "sourcePath": "M:\\web3\\sizetest\\contracts\\RoadMap.sol",
  "compiler": {
    "name": "solc",
    "version": "0.8.20+commit.a1b79de6.Emscripten.clang"
  },
  "schemaVersion": "3.4.14",
  "updatedAt": "2023-07-02T14:36:23.825Z",
  "devdoc": {
    "kind": "dev",
    "methods": {},
    "version": 1
  },
  "userdoc": {
    "kind": "user",
    "methods": {},
    "version": 1
  }
}