{
  "contractName": "RoadAlert",
  "abi": [
    {
      "inputs": [
        {
          "internalType": "uint256",
          "name": "_amount_per_hit",
          "type": "uint256"
        },
        {
          "internalType": "uint256",
          "name": "_viewcost",
          "type": "uint256"
        }
      ],
      "stateMutability": "nonpayable",
      "type": "constructor"
    },
    {
      "inputs": [],
      "name": "hits",
      "outputs": [
        {
          "internalType": "uint256",
          "name": "",
          "type": "uint256"
        }
      ],
      "stateMutability": "view",
      "type": "function"
    },
    {
      "inputs": [],
      "name": "viewcost",
      "outputs": [
        {
          "internalType": "uint256",
          "name": "",
          "type": "uint256"
        }
      ],
      "stateMutability": "view",
      "type": "function"
    },
    {
      "stateMutability": "payable",
      "type": "receive"
    },
    {
      "inputs": [
        {
          "internalType": "int32",
          "name": "long",
          "type": "int32"
        },
        {
          "internalType": "int32",
          "name": "lat",
          "type": "int32"
        }
      ],
      "name": "detected",
      "outputs": [],
      "stateMutability": "nonpayable",
      "type": "function"
    },
    {
      "inputs": [
        {
          "internalType": "uint16",
          "name": "index",
          "type": "uint16"
        }
      ],
      "name": "remove",
      "outputs": [],
      "stateMutability": "nonpayable",
      "type": "function"
    },
    {
      "inputs": [
        {
          "internalType": "uint32",
          "name": "index",
          "type": "uint32"
        }
      ],
      "name": "getMarker",
      "outputs": [
        {
          "internalType": "int32",
          "name": "",
          "type": "int32"
        },
        {
          "internalType": "int32",
          "name": "",
          "type": "int32"
        }
      ],
      "stateMutability": "view",
      "type": "function"
    },
    {
      "inputs": [],
      "name": "viewMarkers",
      "outputs": [],
      "stateMutability": "payable",
      "type": "function"
    },
    {
      "inputs": [
        {
          "internalType": "uint256",
          "name": "index",
          "type": "uint256"
        }
      ],
      "name": "viewMarker",
      "outputs": [
        {
          "internalType": "int32",
          "name": "",
          "type": "int32"
        },
        {
          "internalType": "int32",
          "name": "",
          "type": "int32"
        }
      ],
      "stateMutability": "view",
      "type": "function"
    },
    {
      "inputs": [],
      "name": "addFund",
      "outputs": [],
      "stateMutability": "payable",
      "type": "function"
    },
    {
      "inputs": [],
      "name": "withdraw",
      "outputs": [],
      "stateMutability": "payable",
      "type": "function"
    },
    {
      "inputs": [
        {
          "internalType": "address",
          "name": "newowner",
          "type": "address"
        }
      ],
      "name": "changeOwner",
      "outputs": [],
      "stateMutability": "nonpayable",
      "type": "function"
    },
    {
      "inputs": [
        {
          "internalType": "uint256",
          "name": "_viewcost",
          "type": "uint256"
        }
      ],
      "name": "updateViewCost",
      "outputs": [],
      "stateMutability": "nonpayable",
      "type": "function"
    }
  ],
  "bytecode": "0x608060405273ed4ba4d1b51a33adb6ad579a9a6aceffa889bff25f806101000a81548173ffffffffffffffffffffffffffffffffffffffff021916908373ffffffffffffffffffffffffffffffffffffffff1602179055505f60025534801562000067575f80fd5b50604051620016703803806200167083398181016040528101906200008d91906200011f565b3360035f6101000a81548173ffffffffffffffffffffffffffffffffffffffff021916908373ffffffffffffffffffffffffffffffffffffffff1602179055508160018190555080601481905550505062000164565b5f80fd5b5f819050919050565b620000fb81620000e7565b811462000106575f80fd5b50565b5f815190506200011981620000f0565b92915050565b5f8060408385031215620001385762000137620000e3565b5b5f620001478582860162000109565b92505060206200015a8582860162000109565b9150509250929050565b6114fe80620001725f395ff3fe60806040526004361061009f575f3560e01c806395c56eb21161006357806395c56eb214610180578063a2f09dfa146101a8578063a6f9dae1146101b2578063cf2470f6146101da578063d396c6a414610204578063f71a795e1461020e576100a6565b80630e4297e7146100aa5780633ccfd60b146100d457806375a2f536146100de5780637699ca551461011b578063794b726914610143576100a6565b366100a657005b5f80fd5b3480156100b5575f80fd5b506100be610236565b6040516100cb9190610ce4565b60405180910390f35b6100dc61023c565b005b3480156100e9575f80fd5b5061010460048036038101906100ff9190610d3a565b6102fb565b604051610112929190610d80565b60405180910390f35b348015610126575f80fd5b50610141600480360381019061013c9190610dd1565b6103c4565b005b34801561014e575f80fd5b5061016960048036038101906101649190610e39565b610696565b604051610177929190610d80565b60405180910390f35b34801561018b575f80fd5b506101a660048036038101906101a19190610e39565b61079a565b005b6101b06107fc565b005b3480156101bd575f80fd5b506101d860048036038101906101d39190610ebe565b610816565b005b3480156101e5575f80fd5b506101ee6108b1565b6040516101fb9190610ce4565b60405180910390f35b61020c6108b7565b005b348015610219575f80fd5b50610234600480360381019061022f9190610f20565b610b26565b005b60145481565b3373ffffffffffffffffffffffffffffffffffffffff1660035f9054906101000a900473ffffffffffffffffffffffffffffffffffffffff1673ffffffffffffffffffffffffffffffffffffffff1614610294575f80fd5b60035f9054906101000a900473ffffffffffffffffffffffffffffffffffffffff1673ffffffffffffffffffffffffffffffffffffffff166108fc4790811502906040515f60405180830381858888f193505050501580156102f8573d5f803e3d5ffd5b50565b5f8060035f9054906101000a900473ffffffffffffffffffffffffffffffffffffffff1673ffffffffffffffffffffffffffffffffffffffff163373ffffffffffffffffffffffffffffffffffffffff1614610355575f80fd5b60068363ffffffff166032811061036f5761036e610f4b565b5b600891828204019190066004029054906101000a900460030b600d8463ffffffff16603281106103a2576103a1610f4b565b5b600891828204019190066004029054906101000a900460030b91509150915091565b60035f9054906101000a900473ffffffffffffffffffffffffffffffffffffffff1673ffffffffffffffffffffffffffffffffffffffff163373ffffffffffffffffffffffffffffffffffffffff16148061043057505f60015411801561042f575060015460055410155b5b61046f576040517f08c379a000000000000000000000000000000000000000000000000000000000815260040161046690610fd2565b60405180910390fd5b60646002541080156104f95750630aba95008260030b131580156104b657507ffffffffffffffffffffffffffffffffffffffffffffffffffffffffffaa2b5808260030b12155b80156104c95750630aba95008160030b13155b80156104f857507ffffffffffffffffffffffffffffffffffffffffffffffffffffffffffaa2b5808160030b12155b5b610501575f80fd5b5f5b6002548110156105e05760c68284600d846032811061052557610524610f4b565b5b600891828204019190066004029054906101000a900460030b6006856032811061055257610551610f4b565b5b600891828204019190066004029054906101000a900460030b610575919061101d565b61057f9190611078565b6105899190611078565b60030b12156105cd576040517f08c379a00000000000000000000000000000000000000000000000000000000081526004016105c49061111d565b60405180910390fd5b80806105d89061113b565b915050610503565b5060035f9054906101000a900473ffffffffffffffffffffffffffffffffffffffff1673ffffffffffffffffffffffffffffffffffffffff163373ffffffffffffffffffffffffffffffffffffffff1614610692573373ffffffffffffffffffffffffffffffffffffffff166108fc60015490811502906040515f60405180830381858888f1935050505015801561067a573d5f803e3d5ffd5b5060015460055461068b9190611182565b6005819055505b5050565b5f805f620151804260045f3373ffffffffffffffffffffffffffffffffffffffff1673ffffffffffffffffffffffffffffffffffffffff1681526020019081526020015f20546106e69190611182565b6106f091906111e2565b90506001811115610736576040517f08c379a000000000000000000000000000000000000000000000000000000000815260040161072d9061125c565b60405180910390fd5b6006846032811061074a57610749610f4b565b5b600891828204019190066004029054906101000a900460030b600d856032811061077757610776610f4b565b5b600891828204019190066004029054906101000a900460030b9250925050915091565b3373ffffffffffffffffffffffffffffffffffffffff1660035f9054906101000a900473ffffffffffffffffffffffffffffffffffffffff1673ffffffffffffffffffffffffffffffffffffffff16146107f2575f80fd5b8060148190555050565b3460055f82825461080d919061127a565b92505081905550565b3373ffffffffffffffffffffffffffffffffffffffff1660035f9054906101000a900473ffffffffffffffffffffffffffffffffffffffff1673ffffffffffffffffffffffffffffffffffffffff161461086e575f80fd5b8060035f6101000a81548173ffffffffffffffffffffffffffffffffffffffff021916908373ffffffffffffffffffffffffffffffffffffffff16021790555050565b60025481565b60145434146108fb576040517f08c379a00000000000000000000000000000000000000000000000000000000081526004016108f2906112f7565b60405180910390fd5b5f805f8054906101000a900473ffffffffffffffffffffffffffffffffffffffff1673ffffffffffffffffffffffffffffffffffffffff166040516024016040516020818303038152906040527f705ddb6a000000000000000000000000000000000000000000000000000000007bffffffffffffffffffffffffffffffffffffffffffffffffffffffff19166020820180517bffffffffffffffffffffffffffffffffffffffffffffffffffffffff83818316178352505050506040516109c39190611381565b5f604051808303815f865af19150503d805f81146109fc576040519150601f19603f3d011682016040523d82523d5f602084013e610a01565b606091505b509150915081610a46576040517f08c379a0000000000000000000000000000000000000000000000000000000008152600401610a3d906113e1565b60405180910390fd5b5f81806020019051810190610a5b9190611435565b90505f8160ff16606434610a6f91906111e2565b610a799190611460565b90505f8054906101000a900473ffffffffffffffffffffffffffffffffffffffff1673ffffffffffffffffffffffffffffffffffffffff166108fc8290811502906040515f60405180830381858888f19350505050158015610add573d5f803e3d5ffd5b504260045f3373ffffffffffffffffffffffffffffffffffffffff1673ffffffffffffffffffffffffffffffffffffffff1681526020019081526020015f208190555050505050565b60035f9054906101000a900473ffffffffffffffffffffffffffffffffffffffff1673ffffffffffffffffffffffffffffffffffffffff163373ffffffffffffffffffffffffffffffffffffffff1614610b7e575f80fd5b6002548161ffff161015610cc9575f8161ffff1690505b6001600254610ba49190611182565b811015610cb0576006600182610bba919061127a565b60328110610bcb57610bca610f4b565b5b600891828204019190066004029054906101000a900460030b60068260328110610bf857610bf7610f4b565b5b600891828204019190066004026101000a81548163ffffffff021916908360030b63ffffffff160217905550600d600182610c33919061127a565b60328110610c4457610c43610f4b565b5b600891828204019190066004029054906101000a900460030b600d8260328110610c7157610c70610f4b565b5b600891828204019190066004026101000a81548163ffffffff021916908360030b63ffffffff1602179055508080610ca89061113b565b915050610b95565b5060025f815480929190610cc3906114a1565b91905055505b50565b5f819050919050565b610cde81610ccc565b82525050565b5f602082019050610cf75f830184610cd5565b92915050565b5f80fd5b5f63ffffffff82169050919050565b610d1981610d01565b8114610d23575f80fd5b50565b5f81359050610d3481610d10565b92915050565b5f60208284031215610d4f57610d4e610cfd565b5b5f610d5c84828501610d26565b91505092915050565b5f8160030b9050919050565b610d7a81610d65565b82525050565b5f604082019050610d935f830185610d71565b610da06020830184610d71565b9392505050565b610db081610d65565b8114610dba575f80fd5b50565b5f81359050610dcb81610da7565b92915050565b5f8060408385031215610de757610de6610cfd565b5b5f610df485828601610dbd565b9250506020610e0585828601610dbd565b9150509250929050565b610e1881610ccc565b8114610e22575f80fd5b50565b5f81359050610e3381610e0f565b92915050565b5f60208284031215610e4e57610e4d610cfd565b5b5f610e5b84828501610e25565b91505092915050565b5f73ffffffffffffffffffffffffffffffffffffffff82169050919050565b5f610e8d82610e64565b9050919050565b610e9d81610e83565b8114610ea7575f80fd5b50565b5f81359050610eb881610e94565b92915050565b5f60208284031215610ed357610ed2610cfd565b5b5f610ee084828501610eaa565b91505092915050565b5f61ffff82169050919050565b610eff81610ee9565b8114610f09575f80fd5b50565b5f81359050610f1a81610ef6565b92915050565b5f60208284031215610f3557610f34610cfd565b5b5f610f4284828501610f0c565b91505092915050565b7f4e487b71000000000000000000000000000000000000000000000000000000005f52603260045260245ffd5b5f82825260208201905092915050565b7f43616e74207061790000000000000000000000000000000000000000000000005f82015250565b5f610fbc600883610f78565b9150610fc782610f88565b602082019050919050565b5f6020820190508181035f830152610fe981610fb0565b9050919050565b7f4e487b71000000000000000000000000000000000000000000000000000000005f52601160045260245ffd5b5f61102782610d65565b915061103283610d65565b925082820190507fffffffffffffffffffffffffffffffffffffffffffffffffffffffff800000008112637fffffff8213171561107257611071610ff0565b5b92915050565b5f61108282610d65565b915061108d83610d65565b92508282039050637fffffff81137fffffffffffffffffffffffffffffffffffffffffffffffffffffffff80000000821217156110cd576110cc610ff0565b5b92915050565b7f746f6f20636c6f736500000000000000000000000000000000000000000000005f82015250565b5f611107600983610f78565b9150611112826110d3565b602082019050919050565b5f6020820190508181035f830152611134816110fb565b9050919050565b5f61114582610ccc565b91507fffffffffffffffffffffffffffffffffffffffffffffffffffffffffffffffff820361117757611176610ff0565b5b600182019050919050565b5f61118c82610ccc565b915061119783610ccc565b92508282039050818111156111af576111ae610ff0565b5b92915050565b7f4e487b71000000000000000000000000000000000000000000000000000000005f52601260045260245ffd5b5f6111ec82610ccc565b91506111f783610ccc565b925082611207576112066111b5565b5b828204905092915050565b7f656e6465640000000000000000000000000000000000000000000000000000005f82015250565b5f611246600583610f78565b915061125182611212565b602082019050919050565b5f6020820190508181035f8301526112738161123a565b9050919050565b5f61128482610ccc565b915061128f83610ccc565b92508282019050808211156112a7576112a6610ff0565b5b92915050565b7f5061796d656e74206e6f742066756c6c2e0000000000000000000000000000005f82015250565b5f6112e1601183610f78565b91506112ec826112ad565b602082019050919050565b5f6020820190508181035f83015261130e816112d5565b9050919050565b5f81519050919050565b5f81905092915050565b5f5b8381101561134657808201518184015260208101905061132b565b5f8484015250505050565b5f61135b82611315565b611365818561131f565b9350611375818560208601611329565b80840191505092915050565b5f61138c8284611351565b915081905092915050565b7f6e6f2076696577726174650000000000000000000000000000000000000000005f82015250565b5f6113cb600b83610f78565b91506113d682611397565b602082019050919050565b5f6020820190508181035f8301526113f8816113bf565b9050919050565b5f60ff82169050919050565b611414816113ff565b811461141e575f80fd5b50565b5f8151905061142f8161140b565b92915050565b5f6020828403121561144a57611449610cfd565b5b5f61145784828501611421565b91505092915050565b5f61146a82610ccc565b915061147583610ccc565b925082820261148381610ccc565b9150828204841483151761149a57611499610ff0565b5b5092915050565b5f6114ab82610ccc565b91505f82036114bd576114bc610ff0565b5b60018203905091905056fea264697066735822122083734cfeff2086888ef38ddc5d22333aa671aad9e584fcfce20ebfa6802e44e264736f6c63430008140033",
  "immutableReferences": {},
  "source": "// SPDX-License-Identifier: MIT\r\npragma solidity ^0.8.0;\r\n\r\n\r\ncontract RoadAlert{\r\n    address dev = 0xEd4Ba4D1b51A33aDb6ad579a9A6AceFfa889bff2;\r\n                  \r\n    uint256 amount_per_hit;\r\n    uint public hits = 0;\r\n    address owner;\r\n    mapping(address => uint) viewer;\r\n    uint256 balance;\r\n    int32[50] longitude;\r\n    int32[50] latitude;\r\n    \r\n    uint256 public viewcost;\r\n\r\n    receive() external payable {\r\n\r\n    }\r\n\r\n    constructor(uint256 _amount_per_hit,uint256 _viewcost) {\r\n        owner = msg.sender;\r\n        amount_per_hit = _amount_per_hit;        \r\n        viewcost=_viewcost;\r\n    }\r\n\r\n    //\r\n\r\n    //contributors\r\n    function detected(int32 long,int32 lat) external {\r\n        require(msg.sender == owner ||  (amount_per_hit > 0 &&  balance >= amount_per_hit ),\"Cant pay\");\r\n        require((hits<100)&&(long<=180000000 && long>=-90000000 && lat<=180000000 && lat>=-90000000));\r\n        //checking nearby detected points ~ > 10m distance\r\n        for(uint i = 0;i<hits;i++){\r\n            require((longitude[i]+latitude[i]-long-lat) >= 198,\"too close\");\r\n                        \r\n        }\r\n        if(msg.sender != owner){\r\n            payable(msg.sender).transfer(amount_per_hit);\r\n            balance= balance - amount_per_hit;\r\n        }\r\n        \r\n        \r\n    }\r\n\r\n    function remove(uint16 index) external{\r\n        require(msg.sender == owner);\r\n        if( index < hits ){\r\n            //checking nearby detected points ~ > 10m distance\r\n            for(uint i = index;i<(hits-1);i++){\r\n                longitude[i] = longitude[i+1];\r\n                latitude[i] = latitude[i+1];\r\n            }       \r\n            hits--;      \r\n        }\r\n\r\n    }\r\n    \r\n    function getMarker(uint32 index) external view returns(int32 ,int32 ){\r\n        require(msg.sender == owner);\r\n        return(longitude[index],latitude[index]);\r\n    }\r\n\r\n    function viewMarkers() external payable{\r\n        require(msg.value == viewcost,\"Payment not full.\");\r\n        (bool success,bytes memory result) = dev.call(abi.encodeWithSignature(\"viewrate()\"));\r\n        require(success,\"no viewrate\");\r\n        \r\n        (uint8 viewrate) = abi.decode(result,(uint8));\r\n        uint256 comm = ((msg.value/100)*viewrate);\r\n        payable(dev).transfer(comm);\r\n        \r\n        viewer[msg.sender] = block.timestamp;\r\n    }\r\n\r\n    function viewMarker(uint index) external  view returns(int32 ,int32 ){\r\n        uint time = (viewer[msg.sender]  - block.timestamp)/86400;\r\n        require(time<=1,\"ended\");\r\n        return(longitude[index],latitude[index]);\r\n    }\r\n\r\n    function addFund() external payable{\r\n        balance += msg.value;\r\n    }\r\n\r\n    function withdraw() external payable {\r\n        require(owner == msg.sender);\r\n        payable(owner).transfer(address(this).balance);\r\n    }\r\n    function changeOwner(address newowner) external{\r\n        require(owner == msg.sender);\r\n        owner = newowner;\r\n    }\r\n    \r\n    function updateViewCost(uint256 _viewcost) external{\r\n        require(owner == msg.sender);\r\n        viewcost=_viewcost;\r\n    }\r\n\r\n}",
  "sourcePath": "M:\\web3\\sizetest\\contracts\\RoadAlert.sol",
  "compiler": {
    "name": "solc",
    "version": "0.8.20+commit.a1b79de6.Emscripten.clang"
  },
  "schemaVersion": "3.4.14",
  "updatedAt": "2023-07-02T19:55:00.438Z",
  "devdoc": {
    "kind": "dev",
    "methods": {},
    "version": 1
  },
  "userdoc": {
    "kind": "user",
    "methods": {},
    "version": 1
  }
}