{
  "contractName": "RoadAlert",
  "abi": [
    {
      "inputs": [
        {
          "internalType": "uint256",
          "name": "_amount_per_hit",
          "type": "uint256"
        },
        {
          "internalType": "uint256",
          "name": "_viewcost",
          "type": "uint256"
        }
      ],
      "stateMutability": "nonpayable",
      "type": "constructor"
    },
    {
      "inputs": [],
      "name": "hits",
      "outputs": [
        {
          "internalType": "uint256",
          "name": "",
          "type": "uint256"
        }
      ],
      "stateMutability": "view",
      "type": "function"
    },
    {
      "inputs": [],
      "name": "viewcost",
      "outputs": [
        {
          "internalType": "uint256",
          "name": "",
          "type": "uint256"
        }
      ],
      "stateMutability": "view",
      "type": "function"
    },
    {
      "stateMutability": "payable",
      "type": "receive"
    },
    {
      "inputs": [
        {
          "internalType": "int32",
          "name": "long",
          "type": "int32"
        },
        {
          "internalType": "int32",
          "name": "lat",
          "type": "int32"
        }
      ],
      "name": "detected",
      "outputs": [],
      "stateMutability": "nonpayable",
      "type": "function"
    },
    {
      "inputs": [
        {
          "internalType": "uint16",
          "name": "index",
          "type": "uint16"
        }
      ],
      "name": "remove",
      "outputs": [],
      "stateMutability": "nonpayable",
      "type": "function"
    },
    {
      "inputs": [
        {
          "internalType": "uint32",
          "name": "index",
          "type": "uint32"
        }
      ],
      "name": "getMarker",
      "outputs": [
        {
          "internalType": "int32",
          "name": "",
          "type": "int32"
        },
        {
          "internalType": "int32",
          "name": "",
          "type": "int32"
        }
      ],
      "stateMutability": "view",
      "type": "function"
    },
    {
      "inputs": [],
      "name": "viewMarkers",
      "outputs": [],
      "stateMutability": "payable",
      "type": "function"
    },
    {
      "inputs": [
        {
          "internalType": "uint256",
          "name": "index",
          "type": "uint256"
        }
      ],
      "name": "viewMarker",
      "outputs": [
        {
          "internalType": "int32",
          "name": "",
          "type": "int32"
        },
        {
          "internalType": "int32",
          "name": "",
          "type": "int32"
        }
      ],
      "stateMutability": "view",
      "type": "function"
    },
    {
      "inputs": [],
      "name": "addFund",
      "outputs": [],
      "stateMutability": "payable",
      "type": "function"
    },
    {
      "inputs": [],
      "name": "withdraw",
      "outputs": [],
      "stateMutability": "payable",
      "type": "function"
    },
    {
      "inputs": [
        {
          "internalType": "address",
          "name": "newowner",
          "type": "address"
        }
      ],
      "name": "changeOwner",
      "outputs": [],
      "stateMutability": "nonpayable",
      "type": "function"
    },
    {
      "inputs": [
        {
          "internalType": "uint256",
          "name": "_viewcost",
          "type": "uint256"
        }
      ],
      "name": "updateViewCost",
      "outputs": [],
      "stateMutability": "nonpayable",
      "type": "function"
    }
  ],
  "bytecode": "0x608060405273ed4ba4d1b51a33adb6ad579a9a6aceffa889bff25f806101000a81548173ffffffffffffffffffffffffffffffffffffffff021916908373ffffffffffffffffffffffffffffffffffffffff1602179055505f60025534801562000067575f80fd5b506040516200166c3803806200166c83398181016040528101906200008d91906200011f565b3360035f6101000a81548173ffffffffffffffffffffffffffffffffffffffff021916908373ffffffffffffffffffffffffffffffffffffffff1602179055508160018190555080601481905550505062000164565b5f80fd5b5f819050919050565b620000fb81620000e7565b811462000106575f80fd5b50565b5f815190506200011981620000f0565b92915050565b5f8060408385031215620001385762000137620000e3565b5b5f620001478582860162000109565b92505060206200015a8582860162000109565b9150509250929050565b6114fa80620001725f395ff3fe60806040526004361061009f575f3560e01c806395c56eb21161006357806395c56eb214610180578063a2f09dfa146101a8578063a6f9dae1146101b2578063cf2470f6146101da578063d396c6a414610204578063f71a795e1461020e576100a6565b80630e4297e7146100aa5780633ccfd60b146100d457806375a2f536146100de5780637699ca551461011b578063794b726914610143576100a6565b366100a657005b5f80fd5b3480156100b5575f80fd5b506100be610236565b6040516100cb9190610ce0565b60405180910390f35b6100dc61023c565b005b3480156100e9575f80fd5b5061010460048036038101906100ff9190610d36565b6102fb565b604051610112929190610d7c565b60405180910390f35b348015610126575f80fd5b50610141600480360381019061013c9190610dcd565b6103c4565b005b34801561014e575f80fd5b5061016960048036038101906101649190610e35565b610692565b604051610177929190610d7c565b60405180910390f35b34801561018b575f80fd5b506101a660048036038101906101a19190610e35565b610796565b005b6101b06107f8565b005b3480156101bd575f80fd5b506101d860048036038101906101d39190610eba565b610812565b005b3480156101e5575f80fd5b506101ee6108ad565b6040516101fb9190610ce0565b60405180910390f35b61020c6108b3565b005b348015610219575f80fd5b50610234600480360381019061022f9190610f1c565b610b22565b005b60145481565b3373ffffffffffffffffffffffffffffffffffffffff1660035f9054906101000a900473ffffffffffffffffffffffffffffffffffffffff1673ffffffffffffffffffffffffffffffffffffffff1614610294575f80fd5b60035f9054906101000a900473ffffffffffffffffffffffffffffffffffffffff1673ffffffffffffffffffffffffffffffffffffffff166108fc4790811502906040515f60405180830381858888f193505050501580156102f8573d5f803e3d5ffd5b50565b5f8060035f9054906101000a900473ffffffffffffffffffffffffffffffffffffffff1673ffffffffffffffffffffffffffffffffffffffff163373ffffffffffffffffffffffffffffffffffffffff1614610355575f80fd5b60068363ffffffff166032811061036f5761036e610f47565b5b600891828204019190066004029054906101000a900460030b600d8463ffffffff16603281106103a2576103a1610f47565b5b600891828204019190066004029054906101000a900460030b91509150915091565b60035f9054906101000a900473ffffffffffffffffffffffffffffffffffffffff1673ffffffffffffffffffffffffffffffffffffffff163373ffffffffffffffffffffffffffffffffffffffff16148061043057505f60015411801561042f575060015460055410155b5b61046f576040517f08c379a000000000000000000000000000000000000000000000000000000000815260040161046690610fce565b60405180910390fd5b60646002541080156104f55750630aba95008260030b1380156104b457507ffffffffffffffffffffffffffffffffffffffffffffffffffffffffffaa2b5808260030b125b80156104c65750630aba95008160030b135b80156104f457507ffffffffffffffffffffffffffffffffffffffffffffffffffffffffffaa2b5808160030b125b5b6104fd575f80fd5b5f5b6002548110156105dc5760c68284600d846032811061052157610520610f47565b5b600891828204019190066004029054906101000a900460030b6006856032811061054e5761054d610f47565b5b600891828204019190066004029054906101000a900460030b6105719190611019565b61057b9190611074565b6105859190611074565b60030b13156105c9576040517f08c379a00000000000000000000000000000000000000000000000000000000081526004016105c090611119565b60405180910390fd5b80806105d490611137565b9150506104ff565b5060035f9054906101000a900473ffffffffffffffffffffffffffffffffffffffff1673ffffffffffffffffffffffffffffffffffffffff163373ffffffffffffffffffffffffffffffffffffffff161461068e573373ffffffffffffffffffffffffffffffffffffffff166108fc60015490811502906040515f60405180830381858888f19350505050158015610676573d5f803e3d5ffd5b50600154600554610687919061117e565b6005819055505b5050565b5f805f620151804260045f3373ffffffffffffffffffffffffffffffffffffffff1673ffffffffffffffffffffffffffffffffffffffff1681526020019081526020015f20546106e2919061117e565b6106ec91906111de565b90506001811015610732576040517f08c379a000000000000000000000000000000000000000000000000000000000815260040161072990611258565b60405180910390fd5b6006846032811061074657610745610f47565b5b600891828204019190066004029054906101000a900460030b600d856032811061077357610772610f47565b5b600891828204019190066004029054906101000a900460030b9250925050915091565b3373ffffffffffffffffffffffffffffffffffffffff1660035f9054906101000a900473ffffffffffffffffffffffffffffffffffffffff1673ffffffffffffffffffffffffffffffffffffffff16146107ee575f80fd5b8060148190555050565b3460055f8282546108099190611276565b92505081905550565b3373ffffffffffffffffffffffffffffffffffffffff1660035f9054906101000a900473ffffffffffffffffffffffffffffffffffffffff1673ffffffffffffffffffffffffffffffffffffffff161461086a575f80fd5b8060035f6101000a81548173ffffffffffffffffffffffffffffffffffffffff021916908373ffffffffffffffffffffffffffffffffffffffff16021790555050565b60025481565b60145434146108f7576040517f08c379a00000000000000000000000000000000000000000000000000000000081526004016108ee906112f3565b60405180910390fd5b5f805f8054906101000a900473ffffffffffffffffffffffffffffffffffffffff1673ffffffffffffffffffffffffffffffffffffffff166040516024016040516020818303038152906040527f705ddb6a000000000000000000000000000000000000000000000000000000007bffffffffffffffffffffffffffffffffffffffffffffffffffffffff19166020820180517bffffffffffffffffffffffffffffffffffffffffffffffffffffffff83818316178352505050506040516109bf919061137d565b5f604051808303815f865af19150503d805f81146109f8576040519150601f19603f3d011682016040523d82523d5f602084013e6109fd565b606091505b509150915081610a42576040517f08c379a0000000000000000000000000000000000000000000000000000000008152600401610a39906113dd565b60405180910390fd5b5f81806020019051810190610a579190611431565b90505f8160ff16606434610a6b91906111de565b610a75919061145c565b90505f8054906101000a900473ffffffffffffffffffffffffffffffffffffffff1673ffffffffffffffffffffffffffffffffffffffff166108fc8290811502906040515f60405180830381858888f19350505050158015610ad9573d5f803e3d5ffd5b504260045f3373ffffffffffffffffffffffffffffffffffffffff1673ffffffffffffffffffffffffffffffffffffffff1681526020019081526020015f208190555050505050565b60035f9054906101000a900473ffffffffffffffffffffffffffffffffffffffff1673ffffffffffffffffffffffffffffffffffffffff163373ffffffffffffffffffffffffffffffffffffffff1614610b7a575f80fd5b6002548161ffff161015610cc5575f8161ffff1690505b6001600254610ba0919061117e565b811015610cac576006600182610bb69190611276565b60328110610bc757610bc6610f47565b5b600891828204019190066004029054906101000a900460030b60068260328110610bf457610bf3610f47565b5b600891828204019190066004026101000a81548163ffffffff021916908360030b63ffffffff160217905550600d600182610c2f9190611276565b60328110610c4057610c3f610f47565b5b600891828204019190066004029054906101000a900460030b600d8260328110610c6d57610c6c610f47565b5b600891828204019190066004026101000a81548163ffffffff021916908360030b63ffffffff1602179055508080610ca490611137565b915050610b91565b5060025f815480929190610cbf9061149d565b91905055505b50565b5f819050919050565b610cda81610cc8565b82525050565b5f602082019050610cf35f830184610cd1565b92915050565b5f80fd5b5f63ffffffff82169050919050565b610d1581610cfd565b8114610d1f575f80fd5b50565b5f81359050610d3081610d0c565b92915050565b5f60208284031215610d4b57610d4a610cf9565b5b5f610d5884828501610d22565b91505092915050565b5f8160030b9050919050565b610d7681610d61565b82525050565b5f604082019050610d8f5f830185610d6d565b610d9c6020830184610d6d565b9392505050565b610dac81610d61565b8114610db6575f80fd5b50565b5f81359050610dc781610da3565b92915050565b5f8060408385031215610de357610de2610cf9565b5b5f610df085828601610db9565b9250506020610e0185828601610db9565b9150509250929050565b610e1481610cc8565b8114610e1e575f80fd5b50565b5f81359050610e2f81610e0b565b92915050565b5f60208284031215610e4a57610e49610cf9565b5b5f610e5784828501610e21565b91505092915050565b5f73ffffffffffffffffffffffffffffffffffffffff82169050919050565b5f610e8982610e60565b9050919050565b610e9981610e7f565b8114610ea3575f80fd5b50565b5f81359050610eb481610e90565b92915050565b5f60208284031215610ecf57610ece610cf9565b5b5f610edc84828501610ea6565b91505092915050565b5f61ffff82169050919050565b610efb81610ee5565b8114610f05575f80fd5b50565b5f81359050610f1681610ef2565b92915050565b5f60208284031215610f3157610f30610cf9565b5b5f610f3e84828501610f08565b91505092915050565b7f4e487b71000000000000000000000000000000000000000000000000000000005f52603260045260245ffd5b5f82825260208201905092915050565b7f43616e74207061790000000000000000000000000000000000000000000000005f82015250565b5f610fb8600883610f74565b9150610fc382610f84565b602082019050919050565b5f6020820190508181035f830152610fe581610fac565b9050919050565b7f4e487b71000000000000000000000000000000000000000000000000000000005f52601160045260245ffd5b5f61102382610d61565b915061102e83610d61565b925082820190507fffffffffffffffffffffffffffffffffffffffffffffffffffffffff800000008112637fffffff8213171561106e5761106d610fec565b5b92915050565b5f61107e82610d61565b915061108983610d61565b92508282039050637fffffff81137fffffffffffffffffffffffffffffffffffffffffffffffffffffffff80000000821217156110c9576110c8610fec565b5b92915050565b7f696e76616c6964000000000000000000000000000000000000000000000000005f82015250565b5f611103600783610f74565b915061110e826110cf565b602082019050919050565b5f6020820190508181035f830152611130816110f7565b9050919050565b5f61114182610cc8565b91507fffffffffffffffffffffffffffffffffffffffffffffffffffffffffffffffff820361117357611172610fec565b5b600182019050919050565b5f61118882610cc8565b915061119383610cc8565b92508282039050818111156111ab576111aa610fec565b5b92915050565b7f4e487b71000000000000000000000000000000000000000000000000000000005f52601260045260245ffd5b5f6111e882610cc8565b91506111f383610cc8565b925082611203576112026111b1565b5b828204905092915050565b7f656e6465640000000000000000000000000000000000000000000000000000005f82015250565b5f611242600583610f74565b915061124d8261120e565b602082019050919050565b5f6020820190508181035f83015261126f81611236565b9050919050565b5f61128082610cc8565b915061128b83610cc8565b92508282019050808211156112a3576112a2610fec565b5b92915050565b7f5061796d656e74206e6f742066756c6c2e0000000000000000000000000000005f82015250565b5f6112dd601183610f74565b91506112e8826112a9565b602082019050919050565b5f6020820190508181035f83015261130a816112d1565b9050919050565b5f81519050919050565b5f81905092915050565b5f5b83811015611342578082015181840152602081019050611327565b5f8484015250505050565b5f61135782611311565b611361818561131b565b9350611371818560208601611325565b80840191505092915050565b5f611388828461134d565b915081905092915050565b7f6e6f2076696577726174650000000000000000000000000000000000000000005f82015250565b5f6113c7600b83610f74565b91506113d282611393565b602082019050919050565b5f6020820190508181035f8301526113f4816113bb565b9050919050565b5f60ff82169050919050565b611410816113fb565b811461141a575f80fd5b50565b5f8151905061142b81611407565b92915050565b5f6020828403121561144657611445610cf9565b5b5f6114538482850161141d565b91505092915050565b5f61146682610cc8565b915061147183610cc8565b925082820261147f81610cc8565b9150828204841483151761149657611495610fec565b5b5092915050565b5f6114a782610cc8565b91505f82036114b9576114b8610fec565b5b60018203905091905056fea264697066735822122067cd25a49de54c98ce46f6976a227bcc0ca70905cc5f58e1d337f37cbd9909c364736f6c63430008140033",
  "immutableReferences": {},
  "source": "// SPDX-License-Identifier: MIT\r\npragma solidity ^0.8.0;\r\n\r\n\r\ncontract RoadAlert{\r\n    address dev = 0xEd4Ba4D1b51A33aDb6ad579a9A6AceFfa889bff2;\r\n                  \r\n    uint256 amount_per_hit;\r\n    uint public hits = 0;\r\n    address owner;\r\n    mapping(address => uint) viewer;\r\n    uint256 balance;\r\n    int32[50] longitude;\r\n    int32[50] latitude;\r\n    \r\n    uint256 public viewcost;\r\n\r\n    receive() external payable {\r\n\r\n    }\r\n\r\n    constructor(uint256 _amount_per_hit,uint256 _viewcost) {\r\n        owner = msg.sender;\r\n        amount_per_hit = _amount_per_hit;        \r\n        viewcost=_viewcost;\r\n    }\r\n\r\n    //\r\n\r\n    //contributors\r\n    function detected(int32 long,int32 lat) external {\r\n        require(msg.sender == owner ||  (amount_per_hit > 0 &&  balance >= amount_per_hit ),\"Cant pay\");\r\n        require((hits<100)&&(long>180000000 && long<-90000000 && lat>180000000 && lat<-90000000));\r\n        //checking nearby detected points ~ > 10m distance\r\n        for(uint i = 0;i<hits;i++){\r\n            require((longitude[i]+latitude[i]-long-lat) <= 198,\"invalid\");\r\n                        \r\n        }\r\n        if(msg.sender != owner){\r\n            payable(msg.sender).transfer(amount_per_hit);\r\n            balance= balance - amount_per_hit;\r\n        }\r\n        \r\n        \r\n    }\r\n\r\n    function remove(uint16 index) external{\r\n        require(msg.sender == owner);\r\n        if( index < hits ){\r\n            //checking nearby detected points ~ > 10m distance\r\n            for(uint i = index;i<(hits-1);i++){\r\n                longitude[i] = longitude[i+1];\r\n                latitude[i] = latitude[i+1];\r\n            }       \r\n            hits--;      \r\n        }\r\n\r\n    }\r\n    \r\n    function getMarker(uint32 index) external view returns(int32 ,int32 ){\r\n        require(msg.sender == owner);\r\n        return(longitude[index],latitude[index]);\r\n    }\r\n\r\n    function viewMarkers() external payable{\r\n        require(msg.value == viewcost,\"Payment not full.\");\r\n        (bool success,bytes memory result) = dev.call(abi.encodeWithSignature(\"viewrate()\"));\r\n        require(success,\"no viewrate\");\r\n        \r\n        (uint8 viewrate) = abi.decode(result,(uint8));\r\n        uint256 comm = ((msg.value/100)*viewrate);\r\n        payable(dev).transfer(comm);\r\n        \r\n        viewer[msg.sender] = block.timestamp;\r\n    }\r\n\r\n    function viewMarker(uint index) external  view returns(int32 ,int32 ){\r\n        uint time = (viewer[msg.sender]  - block.timestamp)/86400;\r\n        require(time>=1,\"ended\");\r\n        return(longitude[index],latitude[index]);\r\n    }\r\n\r\n    function addFund() external payable{\r\n        balance += msg.value;\r\n    }\r\n\r\n    function withdraw() external payable {\r\n        require(owner == msg.sender);\r\n        payable(owner).transfer(address(this).balance);\r\n    }\r\n    function changeOwner(address newowner) external{\r\n        require(owner == msg.sender);\r\n        owner = newowner;\r\n    }\r\n    \r\n    function updateViewCost(uint256 _viewcost) external{\r\n        require(owner == msg.sender);\r\n        viewcost=_viewcost;\r\n    }\r\n\r\n}",
  "sourcePath": "M:\\web3\\sizetest\\contracts\\RoadAlert.sol",
  "compiler": {
    "name": "solc",
    "version": "0.8.20+commit.a1b79de6.Emscripten.clang"
  },
  "schemaVersion": "3.4.14",
  "updatedAt": "2023-07-02T14:36:23.807Z",
  "devdoc": {
    "kind": "dev",
    "methods": {},
    "version": 1
  },
  "userdoc": {
    "kind": "user",
    "methods": {},
    "version": 1
  }
}