{
  "contractName": "RoadAlert",
  "abi": [
    {
      "inputs": [
        {
          "internalType": "uint256",
          "name": "_amount_per_hit",
          "type": "uint256"
        },
        {
          "internalType": "uint256",
          "name": "_viewcost",
          "type": "uint256"
        }
      ],
      "stateMutability": "nonpayable",
      "type": "constructor"
    },
    {
      "inputs": [],
      "name": "hits",
      "outputs": [
        {
          "internalType": "uint256",
          "name": "",
          "type": "uint256"
        }
      ],
      "stateMutability": "view",
      "type": "function"
    },
    {
      "inputs": [],
      "name": "viewcost",
      "outputs": [
        {
          "internalType": "uint256",
          "name": "",
          "type": "uint256"
        }
      ],
      "stateMutability": "view",
      "type": "function"
    },
    {
      "stateMutability": "payable",
      "type": "receive"
    },
    {
      "inputs": [
        {
          "internalType": "int32",
          "name": "long",
          "type": "int32"
        },
        {
          "internalType": "int32",
          "name": "lat",
          "type": "int32"
        }
      ],
      "name": "detected",
      "outputs": [],
      "stateMutability": "nonpayable",
      "type": "function"
    },
    {
      "inputs": [
        {
          "internalType": "uint16",
          "name": "index",
          "type": "uint16"
        }
      ],
      "name": "remove",
      "outputs": [],
      "stateMutability": "nonpayable",
      "type": "function"
    },
    {
      "inputs": [
        {
          "internalType": "uint32",
          "name": "index",
          "type": "uint32"
        }
      ],
      "name": "getMarker",
      "outputs": [
        {
          "internalType": "int32",
          "name": "",
          "type": "int32"
        },
        {
          "internalType": "int32",
          "name": "",
          "type": "int32"
        }
      ],
      "stateMutability": "view",
      "type": "function"
    },
    {
      "inputs": [],
      "name": "viewMarkers",
      "outputs": [],
      "stateMutability": "payable",
      "type": "function"
    },
    {
      "inputs": [
        {
          "internalType": "uint256",
          "name": "index",
          "type": "uint256"
        }
      ],
      "name": "viewMarker",
      "outputs": [
        {
          "internalType": "int32",
          "name": "",
          "type": "int32"
        },
        {
          "internalType": "int32",
          "name": "",
          "type": "int32"
        }
      ],
      "stateMutability": "view",
      "type": "function"
    },
    {
      "inputs": [],
      "name": "withdraw",
      "outputs": [],
      "stateMutability": "nonpayable",
      "type": "function"
    },
    {
      "inputs": [
        {
          "internalType": "address",
          "name": "newowner",
          "type": "address"
        }
      ],
      "name": "changeOwner",
      "outputs": [],
      "stateMutability": "nonpayable",
      "type": "function"
    },
    {
      "inputs": [
        {
          "internalType": "uint256",
          "name": "_viewcost",
          "type": "uint256"
        }
      ],
      "name": "updateViewCost",
      "outputs": [],
      "stateMutability": "nonpayable",
      "type": "function"
    }
  ],
  "bytecode": "0x608060405273ed4ba4d1b51a33adb6ad579a9a6aceffa889bff25f806101000a81548173ffffffffffffffffffffffffffffffffffffffff021916908373ffffffffffffffffffffffffffffffffffffffff160217905550731351ae85d96624d76e7ccd092c102268a4c9a84460015f6101000a81548173ffffffffffffffffffffffffffffffffffffffff021916908373ffffffffffffffffffffffffffffffffffffffff1602179055505f600355348015620000bb575f80fd5b50604051620018da380380620018da8339818101604052810190620000e1919062000188565b3360045f6101000a81548173ffffffffffffffffffffffffffffffffffffffff021916908373ffffffffffffffffffffffffffffffffffffffff16021790555081600281905550670de0b6b3a7640000816200013e9190620001fa565b601481905550505062000244565b5f80fd5b5f819050919050565b620001648162000150565b81146200016f575f80fd5b50565b5f81519050620001828162000159565b92915050565b5f8060408385031215620001a157620001a06200014c565b5b5f620001b08582860162000172565b9250506020620001c38582860162000172565b9150509250929050565b7f4e487b71000000000000000000000000000000000000000000000000000000005f52601160045260245ffd5b5f620002068262000150565b9150620002138362000150565b9250828202620002238162000150565b915082820484148315176200023d576200023c620001cd565b5b5092915050565b61168880620002525f395ff3fe608060405260043610610094575f3560e01c806395c56eb21161005857806395c56eb214610181578063a6f9dae1146101a9578063cf2470f6146101d1578063d396c6a4146101fb578063f71a795e146102055761009b565b80630e4297e71461009f5780633ccfd60b146100c957806375a2f536146100df5780637699ca551461011c578063794b7269146101445761009b565b3661009b57005b5f80fd5b3480156100aa575f80fd5b506100b361022d565b6040516100c09190610d84565b60405180910390f35b3480156100d4575f80fd5b506100dd610233565b005b3480156100ea575f80fd5b5061010560048036038101906101009190610dda565b6102f2565b604051610113929190610e20565b60405180910390f35b348015610127575f80fd5b50610142600480360381019061013d9190610e71565b6103bb565b005b34801561014f575f80fd5b5061016a60048036038101906101659190610ed9565b610750565b604051610178929190610e20565b60405180910390f35b34801561018c575f80fd5b506101a760048036038101906101a29190610ed9565b610854565b005b3480156101b4575f80fd5b506101cf60048036038101906101ca9190610f5e565b6108b6565b005b3480156101dc575f80fd5b506101e5610951565b6040516101f29190610d84565b60405180910390f35b610203610957565b005b348015610210575f80fd5b5061022b60048036038101906102269190610fc0565b610bc6565b005b60145481565b3373ffffffffffffffffffffffffffffffffffffffff1660045f9054906101000a900473ffffffffffffffffffffffffffffffffffffffff1673ffffffffffffffffffffffffffffffffffffffff161461028b575f80fd5b60045f9054906101000a900473ffffffffffffffffffffffffffffffffffffffff1673ffffffffffffffffffffffffffffffffffffffff166108fc4790811502906040515f60405180830381858888f193505050501580156102ef573d5f803e3d5ffd5b50565b5f8060045f9054906101000a900473ffffffffffffffffffffffffffffffffffffffff1673ffffffffffffffffffffffffffffffffffffffff163373ffffffffffffffffffffffffffffffffffffffff161461034c575f80fd5b60068363ffffffff166032811061036657610365610feb565b5b600891828204019190066004029054906101000a900460030b600d8463ffffffff166032811061039957610398610feb565b5b600891828204019190066004029054906101000a900460030b91509150915091565b60646003541080156104455750630aba95008260030b1315801561040257507ffffffffffffffffffffffffffffffffffffffffffffffffffffffffffaa2b5808260030b12155b80156104155750630aba95008160030b13155b801561044457507ffffffffffffffffffffffffffffffffffffffffffffffffffffffffffaa2b5808160030b12155b5b61044d575f80fd5b5f5b60035481101561052c5760c68284600d846032811061047157610470610feb565b5b600891828204019190066004029054906101000a900460030b6006856032811061049e5761049d610feb565b5b600891828204019190066004029054906101000a900460030b6104c19190611045565b6104cb91906110a0565b6104d591906110a0565b60030b1215610519576040517f08c379a000000000000000000000000000000000000000000000000000000000815260040161051090611155565b60405180910390fd5b808061052490611173565b91505061044f565b5060045f9054906101000a900473ffffffffffffffffffffffffffffffffffffffff1673ffffffffffffffffffffffffffffffffffffffff163373ffffffffffffffffffffffffffffffffffffffff161461074c575f8060015f9054906101000a900473ffffffffffffffffffffffffffffffffffffffff1673ffffffffffffffffffffffffffffffffffffffff166040516024016040516020818303038152906040527f3bc5de30000000000000000000000000000000000000000000000000000000007bffffffffffffffffffffffffffffffffffffffffffffffffffffffff19166020820180517bffffffffffffffffffffffffffffffffffffffffffffffffffffffff838183161783525050505060405161064b9190611226565b5f604051808303815f865af19150503d805f8114610684576040519150601f19603f3d011682016040523d82523d5f602084013e610689565b606091505b5091509150816106ce576040517f08c379a00000000000000000000000000000000000000000000000000000000081526004016106c590611286565b60405180910390fd5b5f818060200190518101906106e39190611360565b50509150503373ffffffffffffffffffffffffffffffffffffffff166108fc6305f5e1008360025461071591906113f1565b61071f9190611421565b90811502906040515f60405180830381858888f19350505050158015610747573d5f803e3d5ffd5b505050505b5050565b5f805f620151804260055f3373ffffffffffffffffffffffffffffffffffffffff1673ffffffffffffffffffffffffffffffffffffffff1681526020019081526020015f20546107a09190611462565b6107aa91906113f1565b905060018111156107f0576040517f08c379a00000000000000000000000000000000000000000000000000000000081526004016107e7906114df565b60405180910390fd5b6006846032811061080457610803610feb565b5b600891828204019190066004029054906101000a900460030b600d856032811061083157610830610feb565b5b600891828204019190066004029054906101000a900460030b9250925050915091565b3373ffffffffffffffffffffffffffffffffffffffff1660045f9054906101000a900473ffffffffffffffffffffffffffffffffffffffff1673ffffffffffffffffffffffffffffffffffffffff16146108ac575f80fd5b8060148190555050565b3373ffffffffffffffffffffffffffffffffffffffff1660045f9054906101000a900473ffffffffffffffffffffffffffffffffffffffff1673ffffffffffffffffffffffffffffffffffffffff161461090e575f80fd5b8060045f6101000a81548173ffffffffffffffffffffffffffffffffffffffff021916908373ffffffffffffffffffffffffffffffffffffffff16021790555050565b60035481565b601454341461099b576040517f08c379a000000000000000000000000000000000000000000000000000000000815260040161099290611547565b60405180910390fd5b5f805f8054906101000a900473ffffffffffffffffffffffffffffffffffffffff1673ffffffffffffffffffffffffffffffffffffffff166040516024016040516020818303038152906040527f705ddb6a000000000000000000000000000000000000000000000000000000007bffffffffffffffffffffffffffffffffffffffffffffffffffffffff19166020820180517bffffffffffffffffffffffffffffffffffffffffffffffffffffffff8381831617835250505050604051610a639190611226565b5f604051808303815f865af19150503d805f8114610a9c576040519150601f19603f3d011682016040523d82523d5f602084013e610aa1565b606091505b509150915081610ae6576040517f08c379a0000000000000000000000000000000000000000000000000000000008152600401610add906115af565b60405180910390fd5b5f81806020019051810190610afb91906115cd565b90505f8160ff16606434610b0f91906113f1565b610b199190611421565b90505f8054906101000a900473ffffffffffffffffffffffffffffffffffffffff1673ffffffffffffffffffffffffffffffffffffffff166108fc8290811502906040515f60405180830381858888f19350505050158015610b7d573d5f803e3d5ffd5b504260055f3373ffffffffffffffffffffffffffffffffffffffff1673ffffffffffffffffffffffffffffffffffffffff1681526020019081526020015f208190555050505050565b60045f9054906101000a900473ffffffffffffffffffffffffffffffffffffffff1673ffffffffffffffffffffffffffffffffffffffff163373ffffffffffffffffffffffffffffffffffffffff1614610c1e575f80fd5b6003548161ffff161015610d69575f8161ffff1690505b6001600354610c449190611462565b811015610d50576006600182610c5a91906115f8565b60328110610c6b57610c6a610feb565b5b600891828204019190066004029054906101000a900460030b60068260328110610c9857610c97610feb565b5b600891828204019190066004026101000a81548163ffffffff021916908360030b63ffffffff160217905550600d600182610cd391906115f8565b60328110610ce457610ce3610feb565b5b600891828204019190066004029054906101000a900460030b600d8260328110610d1157610d10610feb565b5b600891828204019190066004026101000a81548163ffffffff021916908360030b63ffffffff1602179055508080610d4890611173565b915050610c35565b5060035f815480929190610d639061162b565b91905055505b50565b5f819050919050565b610d7e81610d6c565b82525050565b5f602082019050610d975f830184610d75565b92915050565b5f80fd5b5f63ffffffff82169050919050565b610db981610da1565b8114610dc3575f80fd5b50565b5f81359050610dd481610db0565b92915050565b5f60208284031215610def57610dee610d9d565b5b5f610dfc84828501610dc6565b91505092915050565b5f8160030b9050919050565b610e1a81610e05565b82525050565b5f604082019050610e335f830185610e11565b610e406020830184610e11565b9392505050565b610e5081610e05565b8114610e5a575f80fd5b50565b5f81359050610e6b81610e47565b92915050565b5f8060408385031215610e8757610e86610d9d565b5b5f610e9485828601610e5d565b9250506020610ea585828601610e5d565b9150509250929050565b610eb881610d6c565b8114610ec2575f80fd5b50565b5f81359050610ed381610eaf565b92915050565b5f60208284031215610eee57610eed610d9d565b5b5f610efb84828501610ec5565b91505092915050565b5f73ffffffffffffffffffffffffffffffffffffffff82169050919050565b5f610f2d82610f04565b9050919050565b610f3d81610f23565b8114610f47575f80fd5b50565b5f81359050610f5881610f34565b92915050565b5f60208284031215610f7357610f72610d9d565b5b5f610f8084828501610f4a565b91505092915050565b5f61ffff82169050919050565b610f9f81610f89565b8114610fa9575f80fd5b50565b5f81359050610fba81610f96565b92915050565b5f60208284031215610fd557610fd4610d9d565b5b5f610fe284828501610fac565b91505092915050565b7f4e487b71000000000000000000000000000000000000000000000000000000005f52603260045260245ffd5b7f4e487b71000000000000000000000000000000000000000000000000000000005f52601160045260245ffd5b5f61104f82610e05565b915061105a83610e05565b925082820190507fffffffffffffffffffffffffffffffffffffffffffffffffffffffff800000008112637fffffff8213171561109a57611099611018565b5b92915050565b5f6110aa82610e05565b91506110b583610e05565b92508282039050637fffffff81137fffffffffffffffffffffffffffffffffffffffffffffffffffffffff80000000821217156110f5576110f4611018565b5b92915050565b5f82825260208201905092915050565b7f746f6f20636c6f736500000000000000000000000000000000000000000000005f82015250565b5f61113f6009836110fb565b915061114a8261110b565b602082019050919050565b5f6020820190508181035f83015261116c81611133565b9050919050565b5f61117d82610d6c565b91507fffffffffffffffffffffffffffffffffffffffffffffffffffffffffffffffff82036111af576111ae611018565b5b600182019050919050565b5f81519050919050565b5f81905092915050565b5f5b838110156111eb5780820151818401526020810190506111d0565b5f8484015250505050565b5f611200826111ba565b61120a81856111c4565b935061121a8185602086016111ce565b80840191505092915050565b5f61123182846111f6565b915081905092915050565b7f756e61626c6520746f20636f6e766572740000000000000000000000000000005f82015250565b5f6112706011836110fb565b915061127b8261123c565b602082019050919050565b5f6020820190508181035f83015261129d81611264565b9050919050565b5f815190506112b281610eaf565b92915050565b5f819050919050565b6112ca816112b8565b81146112d4575f80fd5b50565b5f815190506112e5816112c1565b92915050565b5f69ffffffffffffffffffff82169050919050565b611309816112eb565b8114611313575f80fd5b50565b5f8151905061132481611300565b92915050565b5f60ff82169050919050565b61133f8161132a565b8114611349575f80fd5b50565b5f8151905061135a81611336565b92915050565b5f805f806080858703121561137857611377610d9d565b5b5f611385878288016112a4565b9450506020611396878288016112d7565b93505060406113a787828801611316565b92505060606113b88782880161134c565b91505092959194509250565b7f4e487b71000000000000000000000000000000000000000000000000000000005f52601260045260245ffd5b5f6113fb82610d6c565b915061140683610d6c565b925082611416576114156113c4565b5b828204905092915050565b5f61142b82610d6c565b915061143683610d6c565b925082820261144481610d6c565b9150828204841483151761145b5761145a611018565b5b5092915050565b5f61146c82610d6c565b915061147783610d6c565b925082820390508181111561148f5761148e611018565b5b92915050565b7f656e6465640000000000000000000000000000000000000000000000000000005f82015250565b5f6114c96005836110fb565b91506114d482611495565b602082019050919050565b5f6020820190508181035f8301526114f6816114bd565b9050919050565b7f5061796d656e74206e6f742066756c6c2e0000000000000000000000000000005f82015250565b5f6115316011836110fb565b915061153c826114fd565b602082019050919050565b5f6020820190508181035f83015261155e81611525565b9050919050565b7f6e6f2076696577726174650000000000000000000000000000000000000000005f82015250565b5f611599600b836110fb565b91506115a482611565565b602082019050919050565b5f6020820190508181035f8301526115c68161158d565b9050919050565b5f602082840312156115e2576115e1610d9d565b5b5f6115ef8482850161134c565b91505092915050565b5f61160282610d6c565b915061160d83610d6c565b925082820190508082111561162557611624611018565b5b92915050565b5f61163582610d6c565b91505f820361164757611646611018565b5b60018203905091905056fea2646970667358221220e1be5f505b5cea8eeed86a253b98a70ed502a2f908cca0ded10a31ed6eaf260d64736f6c63430008140033",
  "immutableReferences": {},
  "source": "// SPDX-License-Identifier: MIT\r\npragma solidity ^0.8.0;\r\n\r\n\r\ncontract RoadAlert{\r\n    address dev = 0xEd4Ba4D1b51A33aDb6ad579a9A6AceFfa889bff2;\r\n    address price = 0x1351ae85D96624D76e7cCd092c102268a4c9a844;         \r\n    uint256 amount_per_hit;//dollar*10^18\r\n    uint public hits = 0;\r\n    address owner;\r\n    mapping(address => uint) viewer;\r\n    int32[50] longitude;\r\n    int32[50] latitude;\r\n    \r\n    uint256 public viewcost;//dollar*10^18\r\n\r\n    receive() external payable {\r\n\r\n    }\r\n\r\n    constructor(uint256 _amount_per_hit,uint256 _viewcost) {\r\n        owner = msg.sender;\r\n        amount_per_hit = _amount_per_hit;        \r\n        viewcost=_viewcost*(10**18);\r\n    }\r\n\r\n    //\r\n\r\n    //contributors\r\n    function detected(int32 long,int32 lat) external {\r\n\r\n        require((hits<100)&&(long<=180000000 && long>=-90000000 && lat<=180000000 && lat>=-90000000));\r\n        //checking nearby detected points ~ > 10m distance\r\n        for(uint i = 0;i<hits;i++){\r\n            require((longitude[i]+latitude[i]-long-lat) >= 198,\"too close\");\r\n                        \r\n        }\r\n        if(msg.sender != owner){\r\n             (bool success2,bytes memory result2) = price.call(abi.encodeWithSignature(\"getData()\"));\r\n\r\n            require(success2,\"unable to convert\");\r\n            (,int256 answer, ,) = abi.decode(result2,(uint,int256,uint80,uint8));\r\n\r\n            payable(msg.sender).transfer((amount_per_hit/uint256(answer))*10**8);\r\n        }\r\n        \r\n        \r\n    }\r\n\r\n    function remove(uint16 index) external{\r\n        require(msg.sender == owner);\r\n        if( index < hits ){\r\n            //checking nearby detected points ~ > 10m distance\r\n            for(uint i = index;i<(hits-1);i++){\r\n                longitude[i] = longitude[i+1];\r\n                latitude[i] = latitude[i+1];\r\n            }       \r\n            hits--;      \r\n        }\r\n\r\n    }\r\n    \r\n    function getMarker(uint32 index) external view returns(int32 ,int32 ){\r\n        require(msg.sender == owner);\r\n        return(longitude[index],latitude[index]);\r\n    }\r\n\r\n    function viewMarkers() external payable{\r\n        require(msg.value == viewcost,\"Payment not full.\");\r\n        (bool success,bytes memory result) = dev.call(abi.encodeWithSignature(\"viewrate()\"));\r\n        require(success,\"no viewrate\");\r\n        \r\n        (uint8 viewrate) = abi.decode(result,(uint8));\r\n        uint256 comm = ((msg.value/100)*viewrate);\r\n        payable(dev).transfer(comm);\r\n        \r\n        viewer[msg.sender] = block.timestamp;\r\n    }\r\n\r\n    function viewMarker(uint index) external  view returns(int32 ,int32 ){\r\n        uint time = (viewer[msg.sender]  - block.timestamp)/86400;\r\n        require(time<=1,\"ended\");\r\n        return(longitude[index],latitude[index]);\r\n    }\r\n\r\n    function withdraw() external {\r\n        require(owner == msg.sender);\r\n        payable(owner).transfer(address(this).balance);\r\n    }\r\n    function changeOwner(address newowner) external{\r\n        require(owner == msg.sender);\r\n        owner = newowner;\r\n    }\r\n    \r\n    function updateViewCost(uint256 _viewcost) external{\r\n        require(owner == msg.sender);\r\n        viewcost=_viewcost;\r\n    }\r\n\r\n}",
  "sourcePath": "M:\\web3\\sizetest\\contracts\\RoadAlert.sol",
  "compiler": {
    "name": "solc",
    "version": "0.8.20+commit.a1b79de6.Emscripten.clang"
  },
  "schemaVersion": "3.4.14",
  "updatedAt": "2023-07-04T13:39:45.353Z",
  "devdoc": {
    "kind": "dev",
    "methods": {},
    "version": 1
  },
  "userdoc": {
    "kind": "user",
    "methods": {},
    "version": 1
  }
}