{
  "contractName": "RoadAlert",
  "abi": [
    {
      "inputs": [
        {
          "internalType": "uint256",
          "name": "_amount_per_hit",
          "type": "uint256"
        },
        {
          "internalType": "uint256",
          "name": "_viewcost",
          "type": "uint256"
        }
      ],
      "stateMutability": "nonpayable",
      "type": "constructor"
    },
    {
      "inputs": [],
      "name": "hits",
      "outputs": [
        {
          "internalType": "uint256",
          "name": "",
          "type": "uint256"
        }
      ],
      "stateMutability": "view",
      "type": "function"
    },
    {
      "inputs": [],
      "name": "viewcost",
      "outputs": [
        {
          "internalType": "uint256",
          "name": "",
          "type": "uint256"
        }
      ],
      "stateMutability": "view",
      "type": "function"
    },
    {
      "stateMutability": "payable",
      "type": "receive"
    },
    {
      "inputs": [
        {
          "internalType": "int32",
          "name": "long",
          "type": "int32"
        },
        {
          "internalType": "int32",
          "name": "lat",
          "type": "int32"
        }
      ],
      "name": "detected",
      "outputs": [],
      "stateMutability": "nonpayable",
      "type": "function"
    },
    {
      "inputs": [
        {
          "internalType": "uint16",
          "name": "index",
          "type": "uint16"
        }
      ],
      "name": "remove",
      "outputs": [],
      "stateMutability": "nonpayable",
      "type": "function"
    },
    {
      "inputs": [
        {
          "internalType": "uint32",
          "name": "index",
          "type": "uint32"
        }
      ],
      "name": "getMarker",
      "outputs": [
        {
          "internalType": "int32",
          "name": "",
          "type": "int32"
        },
        {
          "internalType": "int32",
          "name": "",
          "type": "int32"
        }
      ],
      "stateMutability": "view",
      "type": "function"
    },
    {
      "inputs": [],
      "name": "viewMarkers",
      "outputs": [],
      "stateMutability": "payable",
      "type": "function"
    },
    {
      "inputs": [
        {
          "internalType": "uint256",
          "name": "index",
          "type": "uint256"
        }
      ],
      "name": "viewMarker",
      "outputs": [
        {
          "internalType": "int32",
          "name": "",
          "type": "int32"
        },
        {
          "internalType": "int32",
          "name": "",
          "type": "int32"
        }
      ],
      "stateMutability": "view",
      "type": "function"
    },
    {
      "inputs": [],
      "name": "withdraw",
      "outputs": [],
      "stateMutability": "nonpayable",
      "type": "function"
    },
    {
      "inputs": [
        {
          "internalType": "address",
          "name": "newowner",
          "type": "address"
        }
      ],
      "name": "changeOwner",
      "outputs": [],
      "stateMutability": "nonpayable",
      "type": "function"
    },
    {
      "inputs": [
        {
          "internalType": "uint256",
          "name": "_viewcost",
          "type": "uint256"
        }
      ],
      "name": "updateViewCost",
      "outputs": [],
      "stateMutability": "nonpayable",
      "type": "function"
    }
  ],
  "bytecode": "0x608060405273ed4ba4d1b51a33adb6ad579a9a6aceffa889bff25f806101000a81548173ffffffffffffffffffffffffffffffffffffffff021916908373ffffffffffffffffffffffffffffffffffffffff160217905550731351ae85d96624d76e7ccd092c102268a4c9a84460015f6101000a81548173ffffffffffffffffffffffffffffffffffffffff021916908373ffffffffffffffffffffffffffffffffffffffff1602179055505f600355348015620000bb575f80fd5b5060405162001a6e38038062001a6e8339818101604052810190620000e1919062000173565b3360045f6101000a81548173ffffffffffffffffffffffffffffffffffffffff021916908373ffffffffffffffffffffffffffffffffffffffff16021790555081600281905550806014819055505050620001b8565b5f80fd5b5f819050919050565b6200014f816200013b565b81146200015a575f80fd5b50565b5f815190506200016d8162000144565b92915050565b5f80604083850312156200018c576200018b62000137565b5b5f6200019b858286016200015d565b9250506020620001ae858286016200015d565b9150509250929050565b6118a880620001c65f395ff3fe608060405260043610610094575f3560e01c806395c56eb21161005857806395c56eb214610181578063a6f9dae1146101a9578063cf2470f6146101d1578063d396c6a4146101fb578063f71a795e146102055761009b565b80630e4297e71461009f5780633ccfd60b146100c957806375a2f536146100df5780637699ca551461011c578063794b7269146101445761009b565b3661009b57005b5f80fd5b3480156100aa575f80fd5b506100b361022d565b6040516100c09190610fa4565b60405180910390f35b3480156100d4575f80fd5b506100dd610233565b005b3480156100ea575f80fd5b5061010560048036038101906101009190610ffa565b6102f2565b604051610113929190611040565b60405180910390f35b348015610127575f80fd5b50610142600480360381019061013d9190611091565b6103bb565b005b34801561014f575f80fd5b5061016a600480360381019061016591906110f9565b6107eb565b604051610178929190611040565b60405180910390f35b34801561018c575f80fd5b506101a760048036038101906101a291906110f9565b6108ef565b005b3480156101b4575f80fd5b506101cf60048036038101906101ca919061117e565b610951565b005b3480156101dc575f80fd5b506101e56109ec565b6040516101f29190610fa4565b60405180910390f35b6102036109f2565b005b348015610210575f80fd5b5061022b600480360381019061022691906111e0565b610de6565b005b60145481565b3373ffffffffffffffffffffffffffffffffffffffff1660045f9054906101000a900473ffffffffffffffffffffffffffffffffffffffff1673ffffffffffffffffffffffffffffffffffffffff161461028b575f80fd5b60045f9054906101000a900473ffffffffffffffffffffffffffffffffffffffff1673ffffffffffffffffffffffffffffffffffffffff166108fc4790811502906040515f60405180830381858888f193505050501580156102ef573d5f803e3d5ffd5b50565b5f8060045f9054906101000a900473ffffffffffffffffffffffffffffffffffffffff1673ffffffffffffffffffffffffffffffffffffffff163373ffffffffffffffffffffffffffffffffffffffff161461034c575f80fd5b60068363ffffffff16603281106103665761036561120b565b5b600891828204019190066004029054906101000a900460030b600d8463ffffffff16603281106103995761039861120b565b5b600891828204019190066004029054906101000a900460030b91509150915091565b60326003541080156104455750630aba95008260030b1315801561040257507ffffffffffffffffffffffffffffffffffffffffffffffffffffffffff5456b008260030b12155b8015610415575063055d4a808160030b13155b801561044457507ffffffffffffffffffffffffffffffffffffffffffffffffffffffffffaa2b5808160030b12155b5b61044d575f80fd5b5f5b60035481101561052c5760c68284600d84603281106104715761047061120b565b5b600891828204019190066004029054906101000a900460030b6006856032811061049e5761049d61120b565b5b600891828204019190066004029054906101000a900460030b6104c19190611265565b6104cb91906112c0565b6104d591906112c0565b60030b1215610519576040517f08c379a000000000000000000000000000000000000000000000000000000000815260040161051090611375565b60405180910390fd5b808061052490611393565b91505061044f565b50816006600354603281106105445761054361120b565b5b600891828204019190066004026101000a81548163ffffffff021916908360030b63ffffffff16021790555080600d600354603281106105875761058661120b565b5b600891828204019190066004026101000a81548163ffffffff021916908360030b63ffffffff16021790555060016003546105c291906113da565b60038190555060045f9054906101000a900473ffffffffffffffffffffffffffffffffffffffff1673ffffffffffffffffffffffffffffffffffffffff163373ffffffffffffffffffffffffffffffffffffffff16146107e7575f8060015f9054906101000a900473ffffffffffffffffffffffffffffffffffffffff1673ffffffffffffffffffffffffffffffffffffffff166040516024016040516020818303038152906040527f3bc5de30000000000000000000000000000000000000000000000000000000007bffffffffffffffffffffffffffffffffffffffffffffffffffffffff19166020820180517bffffffffffffffffffffffffffffffffffffffffffffffffffffffff83818316178352505050506040516106e69190611479565b5f604051808303815f865af19150503d805f811461071f576040519150601f19603f3d011682016040523d82523d5f602084013e610724565b606091505b509150915081610769576040517f08c379a0000000000000000000000000000000000000000000000000000000008152600401610760906114d9565b60405180910390fd5b5f8180602001905181019061077e91906115b3565b50509150503373ffffffffffffffffffffffffffffffffffffffff166108fc6305f5e100836002546107b09190611644565b6107ba9190611674565b90811502906040515f60405180830381858888f193505050501580156107e2573d5f803e3d5ffd5b505050505b5050565b5f805f6201518060055f3373ffffffffffffffffffffffffffffffffffffffff1673ffffffffffffffffffffffffffffffffffffffff1681526020019081526020015f20544261083b91906116b5565b6108459190611644565b9050600181111561088b576040517f08c379a000000000000000000000000000000000000000000000000000000000815260040161088290611732565b60405180910390fd5b6006846032811061089f5761089e61120b565b5b600891828204019190066004029054906101000a900460030b600d85603281106108cc576108cb61120b565b5b600891828204019190066004029054906101000a900460030b9250925050915091565b3373ffffffffffffffffffffffffffffffffffffffff1660045f9054906101000a900473ffffffffffffffffffffffffffffffffffffffff1673ffffffffffffffffffffffffffffffffffffffff1614610947575f80fd5b8060148190555050565b3373ffffffffffffffffffffffffffffffffffffffff1660045f9054906101000a900473ffffffffffffffffffffffffffffffffffffffff1673ffffffffffffffffffffffffffffffffffffffff16146109a9575f80fd5b8060045f6101000a81548173ffffffffffffffffffffffffffffffffffffffff021916908373ffffffffffffffffffffffffffffffffffffffff16021790555050565b60035481565b5f8060015f9054906101000a900473ffffffffffffffffffffffffffffffffffffffff1673ffffffffffffffffffffffffffffffffffffffff166040516024016040516020818303038152906040527f3bc5de30000000000000000000000000000000000000000000000000000000007bffffffffffffffffffffffffffffffffffffffffffffffffffffffff19166020820180517bffffffffffffffffffffffffffffffffffffffffffffffffffffffff8381831617835250505050604051610abc9190611479565b5f604051808303815f865af19150503d805f8114610af5576040519150601f19603f3d011682016040523d82523d5f602084013e610afa565b606091505b509150915081610b3f576040517f08c379a0000000000000000000000000000000000000000000000000000000008152600401610b36906114d9565b60405180910390fd5b5f81806020019051810190610b5491906115b3565b50509150506305f5e10081601454610b6c9190611644565b610b769190611674565b341015610bb8576040517f08c379a0000000000000000000000000000000000000000000000000000000008152600401610baf9061179a565b60405180910390fd5b5f805f8054906101000a900473ffffffffffffffffffffffffffffffffffffffff1673ffffffffffffffffffffffffffffffffffffffff166040516024016040516020818303038152906040527f705ddb6a000000000000000000000000000000000000000000000000000000007bffffffffffffffffffffffffffffffffffffffffffffffffffffffff19166020820180517bffffffffffffffffffffffffffffffffffffffffffffffffffffffff8381831617835250505050604051610c809190611479565b5f604051808303815f865af19150503d805f8114610cb9576040519150601f19603f3d011682016040523d82523d5f602084013e610cbe565b606091505b509150915081610d03576040517f08c379a0000000000000000000000000000000000000000000000000000000008152600401610cfa90611802565b60405180910390fd5b5f81806020019051810190610d189190611820565b90505f8160ff16606434610d2c9190611644565b610d369190611674565b90505f8054906101000a900473ffffffffffffffffffffffffffffffffffffffff1673ffffffffffffffffffffffffffffffffffffffff166108fc8290811502906040515f60405180830381858888f19350505050158015610d9a573d5f803e3d5ffd5b504260055f3373ffffffffffffffffffffffffffffffffffffffff1673ffffffffffffffffffffffffffffffffffffffff1681526020019081526020015f208190555050505050505050565b60045f9054906101000a900473ffffffffffffffffffffffffffffffffffffffff1673ffffffffffffffffffffffffffffffffffffffff163373ffffffffffffffffffffffffffffffffffffffff1614610e3e575f80fd5b6003548161ffff161015610f89575f8161ffff1690505b6001600354610e6491906116b5565b811015610f70576006600182610e7a91906113da565b60328110610e8b57610e8a61120b565b5b600891828204019190066004029054906101000a900460030b60068260328110610eb857610eb761120b565b5b600891828204019190066004026101000a81548163ffffffff021916908360030b63ffffffff160217905550600d600182610ef391906113da565b60328110610f0457610f0361120b565b5b600891828204019190066004029054906101000a900460030b600d8260328110610f3157610f3061120b565b5b600891828204019190066004026101000a81548163ffffffff021916908360030b63ffffffff1602179055508080610f6890611393565b915050610e55565b5060035f815480929190610f839061184b565b91905055505b50565b5f819050919050565b610f9e81610f8c565b82525050565b5f602082019050610fb75f830184610f95565b92915050565b5f80fd5b5f63ffffffff82169050919050565b610fd981610fc1565b8114610fe3575f80fd5b50565b5f81359050610ff481610fd0565b92915050565b5f6020828403121561100f5761100e610fbd565b5b5f61101c84828501610fe6565b91505092915050565b5f8160030b9050919050565b61103a81611025565b82525050565b5f6040820190506110535f830185611031565b6110606020830184611031565b9392505050565b61107081611025565b811461107a575f80fd5b50565b5f8135905061108b81611067565b92915050565b5f80604083850312156110a7576110a6610fbd565b5b5f6110b48582860161107d565b92505060206110c58582860161107d565b9150509250929050565b6110d881610f8c565b81146110e2575f80fd5b50565b5f813590506110f3816110cf565b92915050565b5f6020828403121561110e5761110d610fbd565b5b5f61111b848285016110e5565b91505092915050565b5f73ffffffffffffffffffffffffffffffffffffffff82169050919050565b5f61114d82611124565b9050919050565b61115d81611143565b8114611167575f80fd5b50565b5f8135905061117881611154565b92915050565b5f6020828403121561119357611192610fbd565b5b5f6111a08482850161116a565b91505092915050565b5f61ffff82169050919050565b6111bf816111a9565b81146111c9575f80fd5b50565b5f813590506111da816111b6565b92915050565b5f602082840312156111f5576111f4610fbd565b5b5f611202848285016111cc565b91505092915050565b7f4e487b71000000000000000000000000000000000000000000000000000000005f52603260045260245ffd5b7f4e487b71000000000000000000000000000000000000000000000000000000005f52601160045260245ffd5b5f61126f82611025565b915061127a83611025565b925082820190507fffffffffffffffffffffffffffffffffffffffffffffffffffffffff800000008112637fffffff821317156112ba576112b9611238565b5b92915050565b5f6112ca82611025565b91506112d583611025565b92508282039050637fffffff81137fffffffffffffffffffffffffffffffffffffffffffffffffffffffff800000008212171561131557611314611238565b5b92915050565b5f82825260208201905092915050565b7f746f6f20636c6f736500000000000000000000000000000000000000000000005f82015250565b5f61135f60098361131b565b915061136a8261132b565b602082019050919050565b5f6020820190508181035f83015261138c81611353565b9050919050565b5f61139d82610f8c565b91507fffffffffffffffffffffffffffffffffffffffffffffffffffffffffffffffff82036113cf576113ce611238565b5b600182019050919050565b5f6113e482610f8c565b91506113ef83610f8c565b925082820190508082111561140757611406611238565b5b92915050565b5f81519050919050565b5f81905092915050565b5f5b8381101561143e578082015181840152602081019050611423565b5f8484015250505050565b5f6114538261140d565b61145d8185611417565b935061146d818560208601611421565b80840191505092915050565b5f6114848284611449565b915081905092915050565b7f756e61626c6520746f20636f6e766572740000000000000000000000000000005f82015250565b5f6114c360118361131b565b91506114ce8261148f565b602082019050919050565b5f6020820190508181035f8301526114f0816114b7565b9050919050565b5f81519050611505816110cf565b92915050565b5f819050919050565b61151d8161150b565b8114611527575f80fd5b50565b5f8151905061153881611514565b92915050565b5f69ffffffffffffffffffff82169050919050565b61155c8161153e565b8114611566575f80fd5b50565b5f8151905061157781611553565b92915050565b5f60ff82169050919050565b6115928161157d565b811461159c575f80fd5b50565b5f815190506115ad81611589565b92915050565b5f805f80608085870312156115cb576115ca610fbd565b5b5f6115d8878288016114f7565b94505060206115e98782880161152a565b93505060406115fa87828801611569565b925050606061160b8782880161159f565b91505092959194509250565b7f4e487b71000000000000000000000000000000000000000000000000000000005f52601260045260245ffd5b5f61164e82610f8c565b915061165983610f8c565b92508261166957611668611617565b5b828204905092915050565b5f61167e82610f8c565b915061168983610f8c565b925082820261169781610f8c565b915082820484148315176116ae576116ad611238565b5b5092915050565b5f6116bf82610f8c565b91506116ca83610f8c565b92508282039050818111156116e2576116e1611238565b5b92915050565b7f656e6465640000000000000000000000000000000000000000000000000000005f82015250565b5f61171c60058361131b565b9150611727826116e8565b602082019050919050565b5f6020820190508181035f83015261174981611710565b9050919050565b7f5061796d656e74206e6f742066756c6c2e0000000000000000000000000000005f82015250565b5f61178460118361131b565b915061178f82611750565b602082019050919050565b5f6020820190508181035f8301526117b181611778565b9050919050565b7f6e6f2076696577726174650000000000000000000000000000000000000000005f82015250565b5f6117ec600b8361131b565b91506117f7826117b8565b602082019050919050565b5f6020820190508181035f830152611819816117e0565b9050919050565b5f6020828403121561183557611834610fbd565b5b5f6118428482850161159f565b91505092915050565b5f61185582610f8c565b91505f820361186757611866611238565b5b60018203905091905056fea26469706673582212201f06424f8171af4172649db8c30cd9d4a7906fc8a977939a7c44ca6f838fb12264736f6c63430008140033",
  "immutableReferences": {},
  "source": "// SPDX-License-Identifier: MIT\r\npragma solidity ^0.8.0;\r\n\r\n\r\ncontract RoadAlert{\r\n    address dev = 0xEd4Ba4D1b51A33aDb6ad579a9A6AceFfa889bff2;\r\n    address price = 0x1351ae85D96624D76e7cCd092c102268a4c9a844;         \r\n    uint256 amount_per_hit;//dollar*10^18\r\n    uint public hits = 0;\r\n    address owner;\r\n    mapping(address => uint) viewer;\r\n    int32[50] longitude;\r\n    int32[50] latitude;\r\n    \r\n    uint256 public viewcost;//dollar*10^18\r\n\r\n    receive() external payable {\r\n\r\n    }\r\n\r\n    constructor(uint256 _amount_per_hit,uint256 _viewcost) {\r\n        owner = msg.sender;\r\n        amount_per_hit = _amount_per_hit;        \r\n        viewcost=_viewcost;\r\n    }\r\n\r\n    //\r\n\r\n    //contributors\r\n    function detected(int32 long,int32 lat) external {\r\n\r\n        require((hits<50)&&(long<=180000000 && long>=-180000000 && lat<=90000000 && lat>=-90000000));\r\n        //checking nearby detected points ~ > 10m distance\r\n        for(uint i = 0;i<hits;i++){\r\n            require((longitude[i]+latitude[i]-long-lat) >= 198,\"too close\");\r\n                        \r\n        }\r\n\r\n        longitude[hits] = long;\r\n        latitude[hits] = lat;\r\n        hits = hits+1;\r\n\r\n        if(msg.sender != owner){\r\n             (bool success2,bytes memory result2) = price.call(abi.encodeWithSignature(\"getData()\"));\r\n            \r\n            require(success2,\"unable to convert\");\r\n            \r\n            (,int256 answer, ,) = abi.decode(result2,(uint,int256,uint80,uint8));\r\n            \r\n            payable(msg.sender).transfer((amount_per_hit/uint256(answer))*10**8);\r\n        }\r\n        \r\n        \r\n    }\r\n\r\n    function remove(uint16 index) external{\r\n        \r\n        require(msg.sender == owner);\r\n        if( index < hits ){\r\n            //checking nearby detected points ~ > 10m distance\r\n            for(uint i = index;i<(hits-1);i++){\r\n                longitude[i] = longitude[i+1];\r\n                latitude[i] = latitude[i+1];\r\n            }       \r\n            hits--;      \r\n        }\r\n\r\n    }\r\n    \r\n    function getMarker(uint32 index) external view returns(int32 ,int32 ){\r\n        require(msg.sender == owner);\r\n        return(longitude[index],latitude[index]);\r\n    }\r\n\r\n    function viewMarkers() external payable{\r\n        (bool success2,bytes memory result2) = price.call(abi.encodeWithSignature(\"getData()\"));\r\n            \r\n        require(success2,\"unable to convert\");\r\n        \r\n        (,int256 answer, ,) = abi.decode(result2,(uint,int256,uint80,uint8));\r\n\r\n\r\n        require(msg.value >= ((viewcost/uint256(answer))*10**8),\"Payment not full.\");\r\n        (bool success,bytes memory result) = dev.call(abi.encodeWithSignature(\"viewrate()\"));\r\n        require(success,\"no viewrate\");\r\n        \r\n        (uint8 viewrate) = abi.decode(result,(uint8));\r\n        uint256 comm = ((msg.value/100)*viewrate);\r\n        payable(dev).transfer(comm);\r\n        \r\n        viewer[msg.sender] = block.timestamp;\r\n    }\r\n\r\n    function viewMarker(uint index) external  view returns(int32 ,int32 ){\r\n        //time available\r\n        uint time = ( block.timestamp - viewer[msg.sender])/86400;\r\n        require(time<=1,\"ended\");\r\n        return(longitude[index],latitude[index]);\r\n    }\r\n\r\n    function withdraw() external {\r\n        require(owner == msg.sender);\r\n        payable(owner).transfer(address(this).balance);\r\n    }\r\n    function changeOwner(address newowner) external{\r\n        require(owner == msg.sender);\r\n        owner = newowner;\r\n    }\r\n    \r\n    function updateViewCost(uint256 _viewcost) external{\r\n        require(owner == msg.sender);\r\n        viewcost=_viewcost;\r\n    }\r\n\r\n}",
  "sourcePath": "M:\\web3\\sizetest\\contracts\\RoadAlert.sol",
  "compiler": {
    "name": "solc",
    "version": "0.8.20+commit.a1b79de6.Emscripten.clang"
  },
  "schemaVersion": "3.4.14",
  "updatedAt": "2023-07-04T21:35:28.499Z",
  "devdoc": {
    "kind": "dev",
    "methods": {},
    "version": 1
  },
  "userdoc": {
    "kind": "user",
    "methods": {},
    "version": 1
  }
}