{
  "contractName": "RoadMap",
  "abi": [
    {
      "inputs": [],
      "stateMutability": "payable",
      "type": "constructor"
    },
    {
      "inputs": [],
      "name": "alert",
      "outputs": [
        {
          "internalType": "address",
          "name": "",
          "type": "address"
        }
      ],
      "stateMutability": "view",
      "type": "function"
    },
    {
      "inputs": [],
      "name": "hits",
      "outputs": [
        {
          "internalType": "uint256",
          "name": "",
          "type": "uint256"
        }
      ],
      "stateMutability": "view",
      "type": "function"
    },
    {
      "inputs": [],
      "name": "owner",
      "outputs": [
        {
          "internalType": "address",
          "name": "",
          "type": "address"
        }
      ],
      "stateMutability": "view",
      "type": "function"
    },
    {
      "inputs": [
        {
          "internalType": "uint256",
          "name": "",
          "type": "uint256"
        }
      ],
      "name": "polygonLat",
      "outputs": [
        {
          "internalType": "int32",
          "name": "",
          "type": "int32"
        }
      ],
      "stateMutability": "view",
      "type": "function"
    },
    {
      "inputs": [
        {
          "internalType": "uint256",
          "name": "",
          "type": "uint256"
        }
      ],
      "name": "polygonLong",
      "outputs": [
        {
          "internalType": "int32",
          "name": "",
          "type": "int32"
        }
      ],
      "stateMutability": "view",
      "type": "function"
    },
    {
      "inputs": [
        {
          "internalType": "uint256",
          "name": "",
          "type": "uint256"
        }
      ],
      "name": "report",
      "outputs": [
        {
          "internalType": "int8",
          "name": "",
          "type": "int8"
        }
      ],
      "stateMutability": "view",
      "type": "function"
    },
    {
      "stateMutability": "payable",
      "type": "receive"
    },
    {
      "inputs": [
        {
          "internalType": "uint256",
          "name": "index",
          "type": "uint256"
        }
      ],
      "name": "polygon",
      "outputs": [
        {
          "internalType": "int32",
          "name": "longitude",
          "type": "int32"
        },
        {
          "internalType": "int32",
          "name": "latitude",
          "type": "int32"
        }
      ],
      "stateMutability": "view",
      "type": "function"
    },
    {
      "inputs": [
        {
          "internalType": "int32",
          "name": "long",
          "type": "int32"
        },
        {
          "internalType": "int32",
          "name": "lat",
          "type": "int32"
        }
      ],
      "name": "addToPolygon",
      "outputs": [],
      "stateMutability": "nonpayable",
      "type": "function"
    },
    {
      "inputs": [
        {
          "internalType": "int8",
          "name": "value",
          "type": "int8"
        },
        {
          "internalType": "uint16",
          "name": "index",
          "type": "uint16"
        }
      ],
      "name": "remove",
      "outputs": [],
      "stateMutability": "nonpayable",
      "type": "function"
    },
    {
      "inputs": [
        {
          "internalType": "address",
          "name": "_alert",
          "type": "address"
        }
      ],
      "name": "addAlert",
      "outputs": [],
      "stateMutability": "nonpayable",
      "type": "function"
    },
    {
      "inputs": [],
      "name": "withdraw",
      "outputs": [],
      "stateMutability": "nonpayable",
      "type": "function"
    },
    {
      "inputs": [
        {
          "internalType": "address",
          "name": "newowner",
          "type": "address"
        }
      ],
      "name": "changeOwner",
      "outputs": [],
      "stateMutability": "nonpayable",
      "type": "function"
    }
  ],
  "bytecode": "0x608060405273ed4ba4d1b51a33adb6ad579a9a6aceffa889bff25f806101000a81548173ffffffffffffffffffffffffffffffffffffffff021916908373ffffffffffffffffffffffffffffffffffffffff160217905550731351ae85d96624d76e7ccd092c102268a4c9a84460015f6101000a81548173ffffffffffffffffffffffffffffffffffffffff021916908373ffffffffffffffffffffffffffffffffffffffff1602179055505f600a555f805f8054906101000a900473ffffffffffffffffffffffffffffffffffffffff1673ffffffffffffffffffffffffffffffffffffffff166040516024016040516020818303038152906040527f2c4e722e000000000000000000000000000000000000000000000000000000007bffffffffffffffffffffffffffffffffffffffffffffffffffffffff19166020820180517bffffffffffffffffffffffffffffffffffffffffffffffffffffffff83818316178352505050506040516200017991906200057c565b5f604051808303815f865af19150503d805f8114620001b4576040519150601f19603f3d011682016040523d82523d5f602084013e620001b9565b606091505b50915091508162000201576040517f08c379a0000000000000000000000000000000000000000000000000000000008152600401620001f890620005f2565b60405180910390fd5b5f818060200190518101906200021891906200064e565b90505f8060015f9054906101000a900473ffffffffffffffffffffffffffffffffffffffff1673ffffffffffffffffffffffffffffffffffffffff166040516024016040516020818303038152906040527f3bc5de30000000000000000000000000000000000000000000000000000000007bffffffffffffffffffffffffffffffffffffffffffffffffffffffff19166020820180517bffffffffffffffffffffffffffffffffffffffffffffffffffffffff8381831617835250505050604051620002e691906200057c565b5f604051808303815f865af19150503d805f811462000321576040519150601f19603f3d011682016040523d82523d5f602084013e62000326565b606091505b5091509150816200036e576040517f08c379a00000000000000000000000000000000000000000000000000000000081526004016200036590620006cc565b60405180910390fd5b5f8082806020019051810190620003869190620007a3565b9350509250505f633b9aca00826012620003a191906200083f565b600a620003af9190620009ca565b84620003bc919062000a1a565b633b9aca0034620003ce919062000ac9565b620003da919062000b00565b620003e6919062000ac9565b9050808611156200042e576040517f08c379a0000000000000000000000000000000000000000000000000000000008152600401620004259062000b98565b60405180910390fd5b5f8054906101000a900473ffffffffffffffffffffffffffffffffffffffff1673ffffffffffffffffffffffffffffffffffffffff166108fc83600a620004769190620009ca565b858962000484919062000ac9565b62000490919062000b00565b90811502906040515f60405180830381858888f19350505050158015620004b9573d5f803e3d5ffd5b503360025f6101000a81548173ffffffffffffffffffffffffffffffffffffffff021916908373ffffffffffffffffffffffffffffffffffffffff160217905550505050505050505062000bb8565b5f81519050919050565b5f81905092915050565b5f5b838110156200053b5780820151818401526020810190506200051e565b5f8484015250505050565b5f620005528262000508565b6200055e818562000512565b9350620005708185602086016200051c565b80840191505092915050565b5f62000589828462000546565b915081905092915050565b5f82825260208201905092915050565b7f6e6f2072617465000000000000000000000000000000000000000000000000005f82015250565b5f620005da60078362000594565b9150620005e782620005a4565b602082019050919050565b5f6020820190508181035f8301526200060b81620005cc565b9050919050565b5f80fd5b5f819050919050565b6200062a8162000616565b811462000635575f80fd5b50565b5f8151905062000648816200061f565b92915050565b5f6020828403121562000666576200066562000612565b5b5f620006758482850162000638565b91505092915050565b7f756e61626c6520746f20636f6e766572740000000000000000000000000000005f82015250565b5f620006b460118362000594565b9150620006c1826200067e565b602082019050919050565b5f6020820190508181035f830152620006e581620006a6565b9050919050565b5f819050919050565b6200070081620006ec565b81146200070b575f80fd5b50565b5f815190506200071e81620006f5565b92915050565b5f69ffffffffffffffffffff82169050919050565b620007448162000724565b81146200074f575f80fd5b50565b5f81519050620007628162000739565b92915050565b5f60ff82169050919050565b6200077f8162000768565b81146200078a575f80fd5b50565b5f815190506200079d8162000774565b92915050565b5f805f8060808587031215620007be57620007bd62000612565b5b5f620007cd8782880162000638565b9450506020620007e0878288016200070e565b9350506040620007f38782880162000752565b925050606062000806878288016200078d565b91505092959194509250565b7f4e487b71000000000000000000000000000000000000000000000000000000005f52601160045260245ffd5b5f6200084b8262000768565b9150620008588362000768565b9250828203905060ff81111562000874576200087362000812565b5b92915050565b5f8160011c9050919050565b5f808291508390505b6001851115620008d757808604811115620008af57620008ae62000812565b5b6001851615620008bf5780820291505b8081029050620008cf856200087a565b94506200088f565b94509492505050565b5f82620008f15760019050620009c3565b8162000900575f9050620009c3565b816001811462000919576002811462000924576200095a565b6001915050620009c3565b60ff84111562000939576200093862000812565b5b8360020a91508482111562000953576200095262000812565b5b50620009c3565b5060208310610133831016604e8410600b8410161715620009945782820a9050838111156200098e576200098d62000812565b5b620009c3565b620009a3848484600162000886565b92509050818404811115620009bd57620009bc62000812565b5b81810290505b9392505050565b5f620009d68262000616565b9150620009e38362000768565b925062000a127fffffffffffffffffffffffffffffffffffffffffffffffffffffffffffffffff8484620008e0565b905092915050565b5f62000a2682620006ec565b915062000a3383620006ec565b925082820262000a4381620006ec565b91507f800000000000000000000000000000000000000000000000000000000000000084145f8412161562000a7d5762000a7c62000812565b5b828205841483151762000a955762000a9462000812565b5b5092915050565b7f4e487b71000000000000000000000000000000000000000000000000000000005f52601260045260245ffd5b5f62000ad58262000616565b915062000ae28362000616565b92508262000af55762000af462000a9c565b5b828204905092915050565b5f62000b0c8262000616565b915062000b198362000616565b925082820262000b298162000616565b9150828204841483151762000b435762000b4262000812565b5b5092915050565b7f76616c7565206c657373000000000000000000000000000000000000000000005f82015250565b5f62000b80600a8362000594565b915062000b8d8262000b4a565b602082019050919050565b5f6020820190508181035f83015262000bb18162000b72565b9050919050565b61102d8062000bc65f395ff3fe6080604052600436106100aa575f3560e01c8063ba5ca3fc11610063578063ba5ca3fc146101ab578063bb295a59146101d3578063cf2470f614610210578063d630705f1461023a578063d6ccf58a14610262578063e74ae6941461029e576100b1565b80631834f9bb146100b55780633ccfd60b146100dd57806376d66fdb146100f35780638da5cb5b1461011d578063969b1cdb14610147578063a6f9dae114610183576100b1565b366100b157005b5f80fd5b3480156100c0575f80fd5b506100db60048036038101906100d69190610a83565b6102da565b005b3480156100e8575f80fd5b506100f16104d6565b005b3480156100fe575f80fd5b50610107610595565b6040516101149190610b00565b60405180910390f35b348015610128575f80fd5b506101316105ba565b60405161013e9190610b00565b60405180910390f35b348015610152575f80fd5b5061016d60048036038101906101689190610b4c565b6105df565b60405161017a9190610b86565b60405180910390f35b34801561018e575f80fd5b506101a960048036038101906101a49190610bc9565b610607565b005b3480156101b6575f80fd5b506101d160048036038101906101cc9190610bc9565b6106a2565b005b3480156101de575f80fd5b506101f960048036038101906101f49190610b4c565b61073d565b604051610207929190610c0f565b60405180910390f35b34801561021b575f80fd5b506102246107bc565b6040516102319190610c45565b60405180910390f35b348015610245575f80fd5b50610260600480360381019061025b9190610c88565b6107c2565b005b34801561026d575f80fd5b5061028860048036038101906102839190610b4c565b6109bb565b6040516102959190610cc6565b60405180910390f35b3480156102a9575f80fd5b506102c460048036038101906102bf9190610b4c565b6109e7565b6040516102d19190610cc6565b60405180910390f35b60025f9054906101000a900473ffffffffffffffffffffffffffffffffffffffff1673ffffffffffffffffffffffffffffffffffffffff163373ffffffffffffffffffffffffffffffffffffffff1603610453575f60035f9054906101000a900473ffffffffffffffffffffffffffffffffffffffff1673ffffffffffffffffffffffffffffffffffffffff16826040516024016103789190610cee565b6040516020818303038152906040527f77a22253000000000000000000000000000000000000000000000000000000007bffffffffffffffffffffffffffffffffffffffffffffffffffffffff19166020820180517bffffffffffffffffffffffffffffffffffffffffffffffffffffffff83818316178352505050506040516104029190610d73565b5f604051808303815f865af19150503d805f811461043b576040519150601f19603f3d011682016040523d82523d5f602084013e610440565b606091505b505090508061044d575f80fd5b506104d2565b60028260088361ffff166032811061046e5761046d610d89565b5b602091828204019190069054906101000a90045f0b61048d9190610de3565b6104979190610e68565b60088261ffff16603281106104af576104ae610d89565b5b602091828204019190066101000a81548160ff02191690835f0b60ff1602179055505b5050565b3373ffffffffffffffffffffffffffffffffffffffff1660025f9054906101000a900473ffffffffffffffffffffffffffffffffffffffff1673ffffffffffffffffffffffffffffffffffffffff161461052e575f80fd5b60025f9054906101000a900473ffffffffffffffffffffffffffffffffffffffff1673ffffffffffffffffffffffffffffffffffffffff166108fc4790811502906040515f60405180830381858888f19350505050158015610592573d5f803e3d5ffd5b50565b60035f9054906101000a900473ffffffffffffffffffffffffffffffffffffffff1681565b60025f9054906101000a900473ffffffffffffffffffffffffffffffffffffffff1681565b600881603281106105ee575f80fd5b60209182820401919006915054906101000a90045f0b81565b3373ffffffffffffffffffffffffffffffffffffffff1660025f9054906101000a900473ffffffffffffffffffffffffffffffffffffffff1673ffffffffffffffffffffffffffffffffffffffff161461065f575f80fd5b8060025f6101000a81548173ffffffffffffffffffffffffffffffffffffffff021916908373ffffffffffffffffffffffffffffffffffffffff16021790555050565b3373ffffffffffffffffffffffffffffffffffffffff1660025f9054906101000a900473ffffffffffffffffffffffffffffffffffffffff1673ffffffffffffffffffffffffffffffffffffffff16146106fa575f80fd5b8060035f6101000a81548173ffffffffffffffffffffffffffffffffffffffff021916908373ffffffffffffffffffffffffffffffffffffffff16021790555050565b5f80600a548310801561075157505f600a54115b610759575f80fd5b600483600a811061076d5761076c610d89565b5b600891828204019190066004029054906101000a900460030b600684600a811061079a57610799610d89565b5b600891828204019190066004029054906101000a900460030b91509150915091565b600a5481565b60025f9054906101000a900473ffffffffffffffffffffffffffffffffffffffff1673ffffffffffffffffffffffffffffffffffffffff163373ffffffffffffffffffffffffffffffffffffffff1614610851576040517f08c379a000000000000000000000000000000000000000000000000000000000815260040161084890610f2a565b60405180910390fd5b6064600a541080156108db5750630aba95008260030b1315801561089857507ffffffffffffffffffffffffffffffffffffffffffffffffffffffffffaa2b5808260030b12155b80156108ab5750630aba95008160030b13155b80156108da57507ffffffffffffffffffffffffffffffffffffffffffffffffffffffffffaa2b5808160030b12155b5b61091a576040517f08c379a000000000000000000000000000000000000000000000000000000000815260040161091190610f92565b60405180910390fd5b816004600a54600a811061093157610930610d89565b5b600891828204019190066004026101000a81548163ffffffff021916908360030b63ffffffff160217905550806006600a54600a811061097457610973610d89565b5b600891828204019190066004026101000a81548163ffffffff021916908360030b63ffffffff160217905550600a5f8154809291906109b290610fb0565b91905055505050565b600681600a81106109ca575f80fd5b60089182820401919006600402915054906101000a900460030b81565b600481600a81106109f6575f80fd5b60089182820401919006600402915054906101000a900460030b81565b5f80fd5b5f815f0b9050919050565b610a2b81610a17565b8114610a35575f80fd5b50565b5f81359050610a4681610a22565b92915050565b5f61ffff82169050919050565b610a6281610a4c565b8114610a6c575f80fd5b50565b5f81359050610a7d81610a59565b92915050565b5f8060408385031215610a9957610a98610a13565b5b5f610aa685828601610a38565b9250506020610ab785828601610a6f565b9150509250929050565b5f73ffffffffffffffffffffffffffffffffffffffff82169050919050565b5f610aea82610ac1565b9050919050565b610afa81610ae0565b82525050565b5f602082019050610b135f830184610af1565b92915050565b5f819050919050565b610b2b81610b19565b8114610b35575f80fd5b50565b5f81359050610b4681610b22565b92915050565b5f60208284031215610b6157610b60610a13565b5b5f610b6e84828501610b38565b91505092915050565b610b8081610a17565b82525050565b5f602082019050610b995f830184610b77565b92915050565b610ba881610ae0565b8114610bb2575f80fd5b50565b5f81359050610bc381610b9f565b92915050565b5f60208284031215610bde57610bdd610a13565b5b5f610beb84828501610bb5565b91505092915050565b5f8160030b9050919050565b610c0981610bf4565b82525050565b5f604082019050610c225f830185610c00565b610c2f6020830184610c00565b9392505050565b610c3f81610b19565b82525050565b5f602082019050610c585f830184610c36565b92915050565b610c6781610bf4565b8114610c71575f80fd5b50565b5f81359050610c8281610c5e565b92915050565b5f8060408385031215610c9e57610c9d610a13565b5b5f610cab85828601610c74565b9250506020610cbc85828601610c74565b9150509250929050565b5f602082019050610cd95f830184610c00565b92915050565b610ce881610a4c565b82525050565b5f602082019050610d015f830184610cdf565b92915050565b5f81519050919050565b5f81905092915050565b5f5b83811015610d38578082015181840152602081019050610d1d565b5f8484015250505050565b5f610d4d82610d07565b610d578185610d11565b9350610d67818560208601610d1b565b80840191505092915050565b5f610d7e8284610d43565b915081905092915050565b7f4e487b71000000000000000000000000000000000000000000000000000000005f52603260045260245ffd5b7f4e487b71000000000000000000000000000000000000000000000000000000005f52601160045260245ffd5b5f610ded82610a17565b9150610df883610a17565b925082820190507fffffffffffffffffffffffffffffffffffffffffffffffffffffffffffffff808112607f82131715610e3557610e34610db6565b5b92915050565b7f4e487b71000000000000000000000000000000000000000000000000000000005f52601260045260245ffd5b5f610e7282610a17565b9150610e7d83610a17565b925082610e8d57610e8c610e3b565b5b60015f0383147fffffffffffffffffffffffffffffffffffffffffffffffffffffffffffffff8083141615610ec557610ec4610db6565b5b828205905092915050565b5f82825260208201905092915050565b7f4e6f74204f776e657200000000000000000000000000000000000000000000005f82015250565b5f610f14600983610ed0565b9150610f1f82610ee0565b602082019050919050565b5f6020820190508181035f830152610f4181610f08565b9050919050565b7f72616e67650000000000000000000000000000000000000000000000000000005f82015250565b5f610f7c600583610ed0565b9150610f8782610f48565b602082019050919050565b5f6020820190508181035f830152610fa981610f70565b9050919050565b5f610fba82610b19565b91507fffffffffffffffffffffffffffffffffffffffffffffffffffffffffffffffff8203610fec57610feb610db6565b5b60018201905091905056fea2646970667358221220c541b291e56d16ed5c142378709ac4c6a5739789849b89d99451689a890a5c7f64736f6c63430008140033",
  "immutableReferences": {},
  "source": "// SPDX-License-Identifier: MIT\r\npragma solidity ^0.8.0;\r\n\r\n\r\ncontract RoadMap{\r\n    \r\n    address dev = 0xEd4Ba4D1b51A33aDb6ad579a9A6AceFfa889bff2;\r\n    address price = 0x1351ae85D96624D76e7cCd092c102268a4c9a844;\r\n    address public owner;\r\n    address public alert;\r\n    int32[10] public polygonLong;\r\n    int32[10] public polygonLat;\r\n    int8[50] public report;\r\n    uint public hits = 0;\r\n    mapping(address => uint) viewer;\r\n\r\n    receive() external payable {\r\n\r\n    }\r\n\r\n    constructor() payable {\r\n        (bool success,bytes memory result) = dev.call(abi.encodeWithSignature(\"rate()\"));\r\n        require(success,\"no rate\");\r\n        \r\n        (uint256 rate) = abi.decode(result,(uint256));\r\n        (bool success2,bytes memory result2) = price.call(abi.encodeWithSignature(\"getData()\"));\r\n\r\n        require(success2,\"unable to convert\");\r\n        (,int256 answer, ,uint8 dec) = abi.decode(result2,(uint,int256,uint80,uint8));\r\n\r\n        //usd * 10^18\r\n        uint256 doll = ((msg.value/(10**9))*uint256(answer*int256(10**(18-dec))))/(10**9);\r\n        require(rate <= doll,\"value less\");\r\n        payable(dev).transfer((rate/uint256(answer))*10**dec);\r\n        owner = msg.sender;\r\n    }\r\n\r\n    //get polygon coordinates\r\n    function polygon(uint index) view public returns(int32 longitude,int32 latitude){\r\n        require(index<hits && hits>0);\r\n        return(polygonLong[index],polygonLat[index]);\r\n    }\r\n\r\n    //owner, region of map cover\r\n    function addToPolygon(int32 long,int32 lat) external  {\r\n        require(msg.sender == owner,\"Not Owner\");\r\n        require((hits<100)&& (long<=180000000 && long>=-90000000 && lat<=180000000 && lat>=-90000000),\"range\");\r\n\r\n        polygonLong[hits] = long;\r\n        polygonLat[hits] = lat;\r\n        hits++;\r\n    }\r\n\r\n    //remove\r\n    function remove(int8 value,uint16 index) public{\r\n        \r\n        if(msg.sender == owner){\r\n            (bool success,) = alert.call(abi.encodeWithSignature(\"remove(uint16 index)\",index));\r\n            require(success);   \r\n        }else{\r\n            report[index] = (report[index]+value)/2;\r\n        }\r\n\r\n    }\r\n\r\n    function addAlert(address _alert) public{\r\n        require(owner == msg.sender);\r\n        alert = _alert;\r\n    }\r\n\r\n    function withdraw() external {\r\n        require(owner == msg.sender);\r\n        payable(owner).transfer(address(this).balance);\r\n    }\r\n\r\n    function changeOwner(address newowner) external{\r\n        require(owner == msg.sender);\r\n        owner = newowner;\r\n    }\r\n}",
  "sourcePath": "M:\\web3\\sizetest\\contracts\\RoadMap.sol",
  "compiler": {
    "name": "solc",
    "version": "0.8.20+commit.a1b79de6.Emscripten.clang"
  },
  "schemaVersion": "3.4.14",
  "updatedAt": "2023-07-04T13:39:45.366Z",
  "devdoc": {
    "kind": "dev",
    "methods": {},
    "version": 1
  },
  "userdoc": {
    "kind": "user",
    "methods": {},
    "version": 1
  }
}