{
  "contractName": "Safewaydev",
  "abi": [
    {
      "inputs": [],
      "stateMutability": "nonpayable",
      "type": "constructor"
    },
    {
      "inputs": [],
      "name": "owner",
      "outputs": [
        {
          "internalType": "address",
          "name": "",
          "type": "address"
        }
      ],
      "stateMutability": "view",
      "type": "function"
    },
    {
      "inputs": [],
      "name": "rate",
      "outputs": [
        {
          "internalType": "uint256",
          "name": "",
          "type": "uint256"
        }
      ],
      "stateMutability": "view",
      "type": "function"
    },
    {
      "inputs": [],
      "name": "viewrate",
      "outputs": [
        {
          "internalType": "uint8",
          "name": "",
          "type": "uint8"
        }
      ],
      "stateMutability": "view",
      "type": "function"
    },
    {
      "stateMutability": "payable",
      "type": "receive"
    },
    {
      "inputs": [
        {
          "internalType": "uint256",
          "name": "_rate",
          "type": "uint256"
        }
      ],
      "name": "updateRate",
      "outputs": [],
      "stateMutability": "nonpayable",
      "type": "function"
    },
    {
      "inputs": [
        {
          "internalType": "uint8",
          "name": "_rate",
          "type": "uint8"
        }
      ],
      "name": "updateVRate",
      "outputs": [],
      "stateMutability": "nonpayable",
      "type": "function"
    },
    {
      "inputs": [],
      "name": "withdraw",
      "outputs": [],
      "stateMutability": "payable",
      "type": "function"
    }
  ],
  "bytecode": "0x608060405260dc600155600a60025f6101000a81548160ff021916908360ff16021790555034801561002f575f80fd5b50335f806101000a81548173ffffffffffffffffffffffffffffffffffffffff021916908373ffffffffffffffffffffffffffffffffffffffff1602179055506104c18061007c5f395ff3fe608060405260043610610058575f3560e01c80632c4e722e1461006357806338482ae01461008d5780633ccfd60b146100b557806369ea1771146100bf578063705ddb6a146100e75780638da5cb5b146101115761005f565b3661005f57005b5f80fd5b34801561006e575f80fd5b5061007761013b565b6040516100849190610338565b60405180910390f35b348015610098575f80fd5b506100b360048036038101906100ae919061038b565b610141565b005b6100bd6101d0565b005b3480156100ca575f80fd5b506100e560048036038101906100e091906103e0565b61028b565b005b3480156100f2575f80fd5b506100fb6102eb565b604051610108919061041a565b60405180910390f35b34801561011c575f80fd5b506101256102fd565b6040516101329190610472565b60405180910390f35b60015481565b3373ffffffffffffffffffffffffffffffffffffffff165f8054906101000a900473ffffffffffffffffffffffffffffffffffffffff1673ffffffffffffffffffffffffffffffffffffffff1614801561019d57505f8160ff16115b80156101ab5750601e600154105b6101b3575f80fd5b8060025f6101000a81548160ff021916908360ff16021790555050565b3373ffffffffffffffffffffffffffffffffffffffff165f8054906101000a900473ffffffffffffffffffffffffffffffffffffffff1673ffffffffffffffffffffffffffffffffffffffff1614610226575f80fd5b5f8054906101000a900473ffffffffffffffffffffffffffffffffffffffff1673ffffffffffffffffffffffffffffffffffffffff166108fc4790811502906040515f60405180830381858888f19350505050158015610288573d5f803e3d5ffd5b50565b3373ffffffffffffffffffffffffffffffffffffffff165f8054906101000a900473ffffffffffffffffffffffffffffffffffffffff1673ffffffffffffffffffffffffffffffffffffffff16146102e1575f80fd5b8060018190555050565b60025f9054906101000a900460ff1681565b5f8054906101000a900473ffffffffffffffffffffffffffffffffffffffff1681565b5f819050919050565b61033281610320565b82525050565b5f60208201905061034b5f830184610329565b92915050565b5f80fd5b5f60ff82169050919050565b61036a81610355565b8114610374575f80fd5b50565b5f8135905061038581610361565b92915050565b5f602082840312156103a05761039f610351565b5b5f6103ad84828501610377565b91505092915050565b6103bf81610320565b81146103c9575f80fd5b50565b5f813590506103da816103b6565b92915050565b5f602082840312156103f5576103f4610351565b5b5f610402848285016103cc565b91505092915050565b61041481610355565b82525050565b5f60208201905061042d5f83018461040b565b92915050565b5f73ffffffffffffffffffffffffffffffffffffffff82169050919050565b5f61045c82610433565b9050919050565b61046c81610452565b82525050565b5f6020820190506104855f830184610463565b9291505056fea2646970667358221220f8027bda4eb2605b6d80c4b60c0610ff4c5d185d7d56b60fff6e4ff3c7fd7ade64736f6c63430008140033",
  "immutableReferences": {},
  "source": "// SPDX-License-Identifier: GPL-3.0\r\npragma solidity >=0.7.0 <0.9.0;\r\n\r\n\r\ncontract Safewaydev{\r\n    address public owner;\r\n    uint256 public rate=220;\r\n    uint8 public viewrate=10;\r\n    constructor(){\r\n        owner = msg.sender;\r\n    }\r\n\r\n    receive() external payable {\r\n\r\n    }\r\n\r\n    function updateRate(uint256 _rate) public{\r\n        require(owner == msg.sender);\r\n        rate= _rate;\r\n        \r\n    }\r\n\r\n    function updateVRate(uint8 _rate) public{\r\n        require(owner == msg.sender && _rate>0 && rate<30);\r\n        viewrate = _rate;\r\n        \r\n    }\r\n    function withdraw() public payable {\r\n        require(owner == msg.sender);\r\n\r\n        payable(owner).transfer(address(this).balance);\r\n    }\r\n\r\n} ",
  "sourcePath": "M:\\web3\\sizetest\\contracts\\Roaddev.sol",
  "compiler": {
    "name": "solc",
    "version": "0.8.20+commit.a1b79de6.Emscripten.clang"
  },
  "schemaVersion": "3.4.14",
  "updatedAt": "2023-07-02T14:36:23.833Z",
  "devdoc": {
    "kind": "dev",
    "methods": {},
    "version": 1
  },
  "userdoc": {
    "kind": "user",
    "methods": {},
    "version": 1
  }
}